{
  "contractName": "createToken",
  "abi": [
    {
      "inputs": [],
      "stateMutability": "nonpayable",
      "type": "constructor"
    },
    {
      "anonymous": false,
      "inputs": [
        {
          "indexed": true,
          "internalType": "address",
          "name": "owner",
          "type": "address"
        },
        {
          "indexed": true,
          "internalType": "address",
          "name": "spender",
          "type": "address"
        },
        {
          "indexed": false,
          "internalType": "uint256",
          "name": "value",
          "type": "uint256"
        }
      ],
      "name": "Approval",
      "type": "event"
    },
    {
      "anonymous": false,
      "inputs": [
        {
          "indexed": true,
          "internalType": "address",
          "name": "from",
          "type": "address"
        },
        {
          "indexed": true,
          "internalType": "address",
          "name": "to",
          "type": "address"
        },
        {
          "indexed": false,
          "internalType": "uint256",
          "name": "value",
          "type": "uint256"
        }
      ],
      "name": "Transfer",
      "type": "event"
    },
    {
      "inputs": [
        {
          "internalType": "address",
          "name": "owner",
          "type": "address"
        },
        {
          "internalType": "address",
          "name": "spender",
          "type": "address"
        }
      ],
      "name": "allowance",
      "outputs": [
        {
          "internalType": "uint256",
          "name": "",
          "type": "uint256"
        }
      ],
      "stateMutability": "view",
      "type": "function"
    },
    {
      "inputs": [
        {
          "internalType": "address",
          "name": "spender",
          "type": "address"
        },
        {
          "internalType": "uint256",
          "name": "amount",
          "type": "uint256"
        }
      ],
      "name": "approve",
      "outputs": [
        {
          "internalType": "bool",
          "name": "",
          "type": "bool"
        }
      ],
      "stateMutability": "nonpayable",
      "type": "function"
    },
    {
      "inputs": [
        {
          "internalType": "address",
          "name": "account",
          "type": "address"
        }
      ],
      "name": "balanceOf",
      "outputs": [
        {
          "internalType": "uint256",
          "name": "",
          "type": "uint256"
        }
      ],
      "stateMutability": "view",
      "type": "function"
    },
    {
      "inputs": [],
      "name": "decimals",
      "outputs": [
        {
          "internalType": "uint8",
          "name": "",
          "type": "uint8"
        }
      ],
      "stateMutability": "view",
      "type": "function"
    },
    {
      "inputs": [
        {
          "internalType": "address",
          "name": "spender",
          "type": "address"
        },
        {
          "internalType": "uint256",
          "name": "subtractedValue",
          "type": "uint256"
        }
      ],
      "name": "decreaseAllowance",
      "outputs": [
        {
          "internalType": "bool",
          "name": "",
          "type": "bool"
        }
      ],
      "stateMutability": "nonpayable",
      "type": "function"
    },
    {
      "inputs": [
        {
          "internalType": "address",
          "name": "spender",
          "type": "address"
        },
        {
          "internalType": "uint256",
          "name": "addedValue",
          "type": "uint256"
        }
      ],
      "name": "increaseAllowance",
      "outputs": [
        {
          "internalType": "bool",
          "name": "",
          "type": "bool"
        }
      ],
      "stateMutability": "nonpayable",
      "type": "function"
    },
    {
      "inputs": [
        {
          "internalType": "uint256",
          "name": "value",
          "type": "uint256"
        }
      ],
      "name": "mimc",
      "outputs": [
        {
          "internalType": "uint256",
          "name": "",
          "type": "uint256"
        }
      ],
      "stateMutability": "pure",
      "type": "function"
    },
    {
      "inputs": [],
      "name": "name",
      "outputs": [
        {
          "internalType": "string",
          "name": "",
          "type": "string"
        }
      ],
      "stateMutability": "view",
      "type": "function"
    },
    {
      "inputs": [],
      "name": "symbol",
      "outputs": [
        {
          "internalType": "string",
          "name": "",
          "type": "string"
        }
      ],
      "stateMutability": "view",
      "type": "function"
    },
    {
      "inputs": [],
      "name": "totalSupply",
      "outputs": [
        {
          "internalType": "uint256",
          "name": "",
          "type": "uint256"
        }
      ],
      "stateMutability": "view",
      "type": "function"
    },
    {
      "inputs": [
        {
          "internalType": "address",
          "name": "recipient",
          "type": "address"
        },
        {
          "internalType": "uint256",
          "name": "amount",
          "type": "uint256"
        }
      ],
      "name": "transfer",
      "outputs": [
        {
          "internalType": "bool",
          "name": "",
          "type": "bool"
        }
      ],
      "stateMutability": "nonpayable",
      "type": "function"
    },
    {
      "inputs": [
        {
          "internalType": "address",
          "name": "sender",
          "type": "address"
        },
        {
          "internalType": "address",
          "name": "recipient",
          "type": "address"
        },
        {
          "internalType": "uint256",
          "name": "amount",
          "type": "uint256"
        }
      ],
      "name": "transferFrom",
      "outputs": [
        {
          "internalType": "bool",
          "name": "",
          "type": "bool"
        }
      ],
      "stateMutability": "nonpayable",
      "type": "function"
    },
    {
      "inputs": [
        {
          "internalType": "address",
          "name": "_addressVerif",
          "type": "address"
        }
      ],
      "name": "setAddressVerif",
      "outputs": [],
      "stateMutability": "nonpayable",
      "type": "function"
    },
    {
      "inputs": [],
      "name": "getAddressVerif",
      "outputs": [
        {
          "internalType": "address",
          "name": "adr",
          "type": "address"
        }
      ],
      "stateMutability": "view",
      "type": "function"
    },
    {
      "inputs": [
        {
          "internalType": "address",
          "name": "_addr",
          "type": "address"
        }
      ],
      "name": "getBalanceHash",
      "outputs": [
        {
          "internalType": "bytes32",
          "name": "",
          "type": "bytes32"
        }
      ],
      "stateMutability": "view",
      "type": "function"
    },
    {
      "inputs": [
        {
          "internalType": "address",
          "name": "_to",
          "type": "address"
        },
        {
          "internalType": "uint256",
          "name": "value",
          "type": "uint256"
        },
        {
          "components": [
            {
              "internalType": "uint256[2]",
              "name": "a",
              "type": "uint256[2]"
            },
            {
              "internalType": "uint256[2][2]",
              "name": "b",
              "type": "uint256[2][2]"
            },
            {
              "internalType": "uint256[2]",
              "name": "c",
              "type": "uint256[2]"
            },
            {
              "internalType": "uint256[3]",
              "name": "input",
              "type": "uint256[3]"
            }
          ],
          "internalType": "struct createToken.VerifParameters",
          "name": "vSender",
          "type": "tuple"
        },
        {
          "components": [
            {
              "internalType": "uint256[2]",
              "name": "a",
              "type": "uint256[2]"
            },
            {
              "internalType": "uint256[2][2]",
              "name": "b",
              "type": "uint256[2][2]"
            },
            {
              "internalType": "uint256[2]",
              "name": "c",
              "type": "uint256[2]"
            },
            {
              "internalType": "uint256[3]",
              "name": "input",
              "type": "uint256[3]"
            }
          ],
          "internalType": "struct createToken.VerifParameters",
          "name": "vReceiver",
          "type": "tuple"
        }
      ],
      "name": "confidentialTransfer",
      "outputs": [
        {
          "internalType": "bool",
          "name": "val",
          "type": "bool"
        }
      ],
      "stateMutability": "nonpayable",
      "type": "function"
    }
  ],
  "bytecode": "0x60806040526040518060400160405280600881526020017f444345546f6b656e000000000000000000000000000000000000000000000000815250600690805190602001906200005192919062001a75565b506040518060400160405280600481526020017f4443455400000000000000000000000000000000000000000000000000000000815250600790805190602001906200009f92919062001a75565b5062b71b00600855348015620000b457600080fd5b5060068054620000c49062001c14565b80601f0160208091040260200160405190810160405280929190818152602001828054620000f29062001c14565b8015620001435780601f10620001175761010080835404028352916020019162000143565b820191906000526020600020905b8154815290600101906020018083116200012557829003601f168201915b505050505060078054620001579062001c14565b80601f0160208091040260200160405190810160405280929190818152602001828054620001859062001c14565b8015620001d65780601f10620001aa57610100808354040283529160200191620001d6565b820191906000526020600020905b815481529060010190602001808311620001b857829003601f168201915b50505050508160049080519060200190620001f392919062001a75565b5080600590805190602001906200020c92919062001a75565b50505062000223336008546200022960201b60201c565b62001d86565b600073ffffffffffffffffffffffffffffffffffffffff168273ffffffffffffffffffffffffffffffffffffffff1614156200029c576040517f08c379a0000000000000000000000000000000000000000000000000000000008152600401620002939062001b5d565b60405180910390fd5b620002b0600083836200042360201b60201c565b8060036000828254620002c4919062001bad565b92505081905550806000808473ffffffffffffffffffffffffffffffffffffffff1673ffffffffffffffffffffffffffffffffffffffff16815260200190815260200160002060008282546200031b919062001bad565b92505081905550620003716000808473ffffffffffffffffffffffffffffffffffffffff1673ffffffffffffffffffffffffffffffffffffffff168152602001908152602001600020546200042860201b60201c565b60001b600160008473ffffffffffffffffffffffffffffffffffffffff1673ffffffffffffffffffffffffffffffffffffffff168152602001908152602001600020819055508173ffffffffffffffffffffffffffffffffffffffff16600073ffffffffffffffffffffffffffffffffffffffff167fddf252ad1be2c89b69c2b068fc378daa952ba7f163c4a11628f55a4df523b3ef8360405162000417919062001b7f565b60405180910390a35050565b505050565b600080600167ffffffffffffffff8111156200046d577f4e487b7100000000000000000000000000000000000000000000000000000000600052604160045260246000fd5b6040519080825280602002602001820160405280156200049c5781602001602082028036833780820191505090505b5090508281600081518110620004db577f4e487b7100000000000000000000000000000000000000000000000000000000600052603260045260246000fd5b602002602001018181525050620004fa8160026200050260201b60201c565b915050919050565b60008082905060007f30644e72e131a029b85045b68181585d2833e84879b9709143e1f593f0000001905060005b85518110156200061257816200059387838151811062000579577f4e487b7100000000000000000000000000000000000000000000000000000000600052603260045260246000fd5b6020026020010151856200061e60201b62000c8e1760201c565b878381518110620005cd577f4e487b7100000000000000000000000000000000000000000000000000000000600052603260045260246000fd5b602002602001015185620005e2919062001bad565b620005ee919062001bad565b620005fa919062001c98565b92508080620006099062001c4a565b91505062000530565b50819250505092915050565b60007f30644e72e131a029b85045b68181585d2833e84879b9709143e1f593f00000016000808460008701019150828283099050828284858485098409099550847f2e2ebbb178296b63d88ec198f0976ad98bc1d4eb0d921ddd2eb86cb7e70a98e58701019150828283099050828284858485098409099550847f21bfc154b5b071d22d06105663553801f858c1f231020b4c291a729d6281d3498701019150828283099050828284858485098409099550847f126cfa352b0e2701442b36e0c2fc88287cfd3bfecce842afc0e3e78d8edb4ad88701019150828283099050828284858485098409099550847f0309d7067ab65de1a99fe23f458d0bc3f18c59b6642ef48afc679ef17cb6928c8701019150828283099050828284858485098409099550847f194c4693409966960be88513cfe32987c125f71398a782e44973fb8af4798bd88701019150828283099050828284858485098409099550847f05a849684bc58cc0d6e9f319b4dae26db171733bf60f31d978e41d09a75a63198701019150828283099050828284858485098409099550847f18bd4dae5134538bd2f90d41bbb1e330b2a8286ba4a09aca3fbbdcf932534be58701019150828283099050828284858485098409099550847f0736c60cd39fd1649d4845b4f9a6ec9baca89fb2de0a3d7eeabe43504b5607fa8701019150828283099050828284858485098409099550847f25a6971a9d2c1de9f374378d8f61492b1bd3c46584c076a76c43c3cd1a7475128701019150828283099050828284858485098409099550847f0a3373d15fa6dce221f83226c02d41f8aea5cfc6da4c9f4981ada1bd4b50f56e8701019150828283099050828284858485098409099550847f2b70028e2bf4e008e22eddb78d4190d73c289dc6445b3f64e15f8bd0ec02c6728701019150828283099050828284858485098409099550847f0b24ef461a71eed93dd366342f9ca4eebb749c8a5a6057c801d538c7c0666ba48701019150828283099050828284858485098409099550847f05d1e0ac576d1ec814b621516339ae1a291c7df36b5fd6cf0b4e3c9cd25e30728701019150828283099050828284858485098409099550847f271cfbf88e9744b8596e7e2d6875c8005d0e62014010ac35e95a7ce2390bc50f8701019150828283099050828284858485098409099550847f196309f1d170d741ab1ce90c39772017fb7cdec78c37882b98a6b56956c13def8701019150828283099050828284858485098409099550847f127c1116c575c03c7f6d83417d8c1b3808f92ee16924a54094bf094721e9e4f58701019150828283099050828284858485098409099550847f1bff78047ee67d38a54fdc540f9a2ba07f63489acd36425f1ae210ac329826f58701019150828283099050828284858485098409099550847f06c7dc7bbae615fcf1896f2b8db7d92c05dc1ea1c8134e9db6fd588672c53e9a8701019150828283099050828284858485098409099550847f12df78cba175ef76dbfcc9c785926bb3949a87ec7533e2559a27a64b91cebba58701019150828283099050828284858485098409099550847f2bd4cdc962e3da62cb3c96f7c428a9b0d518bfa7ce26f8fce7a6af769afb65408701019150828283099050828284858485098409099550847f24edd3847febbe44c4cc390246e3379b47fd01a030d0cd0b4fcf7fbd1cabfe588701019150828283099050828284858485098409099550847f1ce065d2c2561bb573e4cf4259d3b0b0e9eacb447751c62b77d0bc5e4e3c7d158701019150828283099050828284858485098409099550847f18053e9f0d45f9eefbda135bfd39329e34837e633565c314fb9030b9db7381bb8701019150828283099050828284858485098409099550847f162ffa8742138bbe516168bf86ec78b1ad1e8b535ac455a7cfbb22c13f9c5a9e8701019150828283099050828284858485098409099550847f079eea42e16ac6442ca82623fc0e8d9ad3996a47a8013ea9cb73858ca42b71598701019150828283099050828284858485098409099550847f0a49af2bbe11b05bd02a69a47b1bad5b2170407ada21142f06e4e109de88a1b68701019150828283099050828284858485098409099550847f12c34eebbaa69cccc36929e8f4a6e40771e153ff77943da55c4fc860537b733a8701019150828283099050828284858485098409099550847e8de5ac6b4e359335b6fce58dc0e5e43fd2aefd86bac35abe579b8cace5dbc88701019150828283099050828284858485098409099550847f04a6e988b50d915734bf3296d83057ffe6a550f8987e4597bee7d333cd24a8658701019150828283099050828284858485098409099550847f24112633926cfc6028fa2ffd9f090b1e5428a0a87d7118356e48b5d4704492178701019150828283099050828284858485098409099550847f0d56329982f3df38a3f19fb814c3013f419ba0eb8403b27c0c0e75c6fe1cf4688701019150828283099050828284858485098409099550847f1f01ef80763c95f53c434164493d9673aeef290bf1aa1997d677b557b9692e8a8701019150828283099050828284858485098409099550847f105c5257f801527e60b0361c00075b5a79d2dc6821d8a1258d906ed453c7e7be8701019150828283099050828284858485098409099550847f03db505a0c32cb61ca099389c2180e1c83827fb41d9fed84d88766df44c630798701019150828283099050828284858485098409099550847f1262e738f38db6c79d24d9727294421cd95afa24f4700c1323ab83c3a06ace328701019150828283099050828284858485098409099550847f0ee68c3e38c194033994c0d4d7bde35bfafa35b22a95f915f82c5a3b0422bd9a8701019150828283099050828284858485098409099550847f2ee5427bd20c47f8d2f0aa9e6419f7926abcd5965084292ae54dd780077e69028701019150828283099050828284858485098409099550847f1e542d31d2a381792e0a9241c46229a22fd9382443e423a0e419d0feb58656af8701019150828283099050828284858485098409099550847f0ba39f01462ab6a7cf621952752fcde48677d7f32df47e940eacf4954c5ef6328701019150828283099050828284858485098409099550847f29c00b058c17800146bdc06b1e73ff5d0ff53df96f8463818c0572d11fcaf88b8701019150828283099050828284858485098409099550847f0b6200895b60a6c6794fcf1c2b1b15d03a713c905a8ba1f1315f7501fe1a50b88701019150828283099050828284858485098409099550847f2bc639b1b85d731f62d2c6f391d4498e392cb75edcbd5c4c0fa8b26d32d68a128701019150828283099050828284858485098409099550847f2a89f38e6440ce641127046b67d8e615f14503d72d76bf3c703a01d1463a84458701019150828283099050828284858485098409099550847f1750ede7eeeb4edd7838b67fac6d250a54055eeead10e69b3a6e1f076ca878688701019150828283099050828284858485098409099550847f0c2d65084bead2a743115be5329d5458d29802081f6f9dac4165c42651f9be2b8701019150828283099050828284858485098409099550847f28303e2d834e16e1fe33c9ab726a3e75dd0dad9bfea1a43267199e1f243993fb8701019150828283099050828284858485098409099550847f2b572811ca34ea5110d10772e4ced362ebefd7cd1e1884b769e9435914efc5e58701019150828283099050828284858485098409099550847f17521ca5799fe2ea82c67c0a8d0863b5eec0ef9b703e195dd402b7008b53f6b48701019150828283099050828284858485098409099550847f0407e54b96a5b63c609fa3797b223c73d260a365ad58b25891a5660272096bd58701019150828283099050828284858485098409099550847f1a3cd155b03c7d33cc8222c997424bc14069e2edbf4b8aa564c9e5832bdace918701019150828283099050828284858485098409099550847f296255b5e697e517c502ba49b18aaad89514a490a02e7a878b5d559841b93fbd8701019150828283099050828284858485098409099550847f174835801a1f1525b4c21853b965c5048af465e9f79de9d16748c67953da79a78701019150828283099050828284858485098409099550847f2d4afed7a708e5972e84d766292f2c841c5d8570961074d59ad3f51e9369a5978701019150828283099050828284858485098409099550847f1c0eb06744c9866e271cd29a7f17f72964faba3cd088b95e73dcce9d92c79ba68701019150828283099050828284858485098409099550847f26705e7e4f23a7d786ad1786b353a2f8b82269c7b58ab70d7b93f41685d34d458701019150828283099050828284858485098409099550847f04e674d88b90b1188353106ae25c0447acace9dc6d62cfe7fec2d7993dfd7a228701019150828283099050828284858485098409099550847f0df3335da13ff46f65095f975d157886241aeccff38fd9bba92644f8969d7e098701019150828283099050828284858485098409099550847f2dfff62b9282ec05b1fa44479a6e9debe9ac631813d2b10e44b9e0fe19e4d4ee8701019150828283099050828284858485098409099550847f08ece248fe1ce1cd705699b5cd07c990ec27721bab59b657bb138e487ee6694d8701019150828283099050828284858485098409099550847f2c1ab81db607ba76dbf71f48752c856bf183044981c3b6d1fd31b179a078f5718701019150828283099050828284858485098409099550847f01de6f8886868e351bf4caad293bd86ed29ef63810e15cb809542e01bfbbcb888701019150828283099050828284858485098409099550847f23dd8b576fa286331864d63c77fd82fa61da717533821b9382617ebd54abeb468701019150828283099050828284858485098409099550847f169f2c8e515b2cee8d183991c3712736001a7f92fb34c3e3f532dec373aacbfb8701019150828283099050828284858485098409099550847f0ecf89b898e2deca99ae5108d271f1fa92e5018c1ac899d554dc1dfa35ceb0a08701019150828283099050828284858485098409099550847f0dc0d6e76afba377dd693ed4c47a4f9fee7a88d1df5df62fd06f2f87b81de1c88701019150828283099050828284858485098409099550847f0d8d08571539c68a37dad2a6638291d323948e57a0189a7be2ec14d89308bb6d8701019150828283099050828284858485098409099550847f17d170e737533e922c934f79bad3c28f85ef14b21c7354000298cee876977a448701019150828283099050828284858485098409099550847f09ed630d4088d7acaa34064515c1cb368ed405c4ded26df38652d290b26f6aff8701019150828283099050828284858485098409099550847f2b5381943dd4c43bd059a4747b72fc116f099c46004dc811ddb440f7ee69701e8701019150828283099050828284858485098409099550847f01da34e987e965c368ec0252e97db8bfb78668db369cdf6c70f7e02b5bd52b3b8701019150828283099050828284858485098409099550847f1a18c896f124cd4821fbe08ac680b78362c15344619cef072874f43799b89f238701019150828283099050828284858485098409099550847f168dbaf0eae2cfe96f6b340bfd4922c1c41317bfff69613b81d9722e34059f208701019150828283099050828284858485098409099550847f1dfd587726ec442565eb47fc0234740634b6562d1b60192947140b8670aa40148701019150828283099050828284858485098409099550847f147a904bcd17a3f66ebd75b2c1279507001e602842a047929fd119d31edf39248701019150828283099050828284858485098409099550847e621164e8b17a476172ee2aabd9a1a67ecc05f926bec5bbaceb7524616e11668701019150828283099050828284858485098409099550847f280fcce91f920b6487ee3e6a838abbc1f7eb44e4853b22d067a56f5e908499b98701019150828283099050828284858485098409099550847f2d49d03ab6b741495e4d7cbe87ea6cf0f06aea86f528d13d57f6a05e4c868d0b8701019150828283099050828284858485098409099550847f2a59b6e410852d96661479179081af38f478b7603eb3e4f231f99633d826cde98701019150828283099050828284858485098409099550847f1a7783fa9ff7b36d38aeb75e65cfc88260b70d4600b51ab5745e5fe1dc35d9b18701019150828283099050828284858485098409099550847f286d1e7e039fa286d1bd8fe69e175ecad61693cc1f55044847191bae2ff344b28701019150828283099050828284858485098409099550847f0fa108dbe8e14e8c53093f9aaf1f989dabb3dc026ffecb049d3d6b4b2c9b80778701019150828283099050828284858485098409099550847f0e4b25635fa58150829c3e832c4361bfa7edfdf40b0514c00dd3a7338131f1938701019150828283099050828284858485098409099550847f23b0ea71b8bbd3cb62b741e525f5c8b35cbfed820aaf1234d03a4655cdf710398701019150828283099050828284858485098409099550847f2aced572dbfd2664569030fcf391019702f79cbfbe380714894fbfc785dad03f8701019150828283099050828284858485098409099550847f03c36b340d12daf2422febd15a4521f351459057c2affd6816c67fa38b3cc34d8701019150828283099050828284858485098409099550847f17d64c030f29369c09ffd529c7532b84228e69ef6dd9d9dab603ba86cb9254e78701019150828283099050828284858485098409099550847f095050333e4136e4c73b4101ab008bf625a73c51afd5e77f99c606ca7ace63d78701019150828283099050828284858485098409099550847f10ca0fd2a95bc198763d375f566182463e0c92ea122df6485f1c4e5a9769b32c8701019150828283099050828284858485098409099550847f29f63c935efe224e235d5b49b88578a97b25c739a342d4a0d908b98ef757db618701019150828283099050828284858485098409099550847f1e1289b8eff2d431b178bc957cc0c41a1d7237057b9256fd090eb3c6366b9ef5870101915082828309905082828485848509840909955082858708935050505092915050565b82805462001a839062001c14565b90600052602060002090601f01602090048101928262001aa7576000855562001af3565b82601f1062001ac257805160ff191683800117855562001af3565b8280016001018555821562001af3579182015b8281111562001af257825182559160200191906001019062001ad5565b5b50905062001b02919062001b06565b5090565b5b8082111562001b2157600081600090555060010162001b07565b5090565b600062001b34601f8362001b9c565b915062001b418262001d5d565b602082019050919050565b62001b578162001c0a565b82525050565b6000602082019050818103600083015262001b788162001b25565b9050919050565b600060208201905062001b96600083018462001b4c565b92915050565b600082825260208201905092915050565b600062001bba8262001c0a565b915062001bc78362001c0a565b9250827fffffffffffffffffffffffffffffffffffffffffffffffffffffffffffffffff0382111562001bff5762001bfe62001cd0565b5b828201905092915050565b6000819050919050565b6000600282049050600182168062001c2d57607f821691505b6020821081141562001c445762001c4362001d2e565b5b50919050565b600062001c578262001c0a565b91507fffffffffffffffffffffffffffffffffffffffffffffffffffffffffffffffff82141562001c8d5762001c8c62001cd0565b5b600182019050919050565b600062001ca58262001c0a565b915062001cb28362001c0a565b92508262001cc55762001cc462001cff565b5b828206905092915050565b7f4e487b7100000000000000000000000000000000000000000000000000000000600052601160045260246000fd5b7f4e487b7100000000000000000000000000000000000000000000000000000000600052601260045260246000fd5b7f4e487b7100000000000000000000000000000000000000000000000000000000600052602260045260246000fd5b7f45524332303a206d696e7420746f20746865207a65726f206164647265737300600082015250565b61385d8062001d966000396000f3fe608060405234801561001057600080fd5b50600436106101005760003560e01c8063666f56631161009757806395d89b411161006657806395d89b41146102e9578063a457c2d714610307578063a9059cbb14610337578063dd62ed3e1461036757610100565b8063666f56631461023b57806370a082311461026b5780637a2d94071461029b5780637beeee16146102cb57610100565b806323b872dd116100d357806323b872dd1461018d578063313ce567146101bd57806339509351146101db578063615044d91461020b57610100565b806301dbf48b1461010557806306fdde0314610121578063095ea7b31461013f57806318160ddd1461016f575b600080fd5b61011f600480360381019061011a9190612b23565b610397565b005b6101296103db565b6040516101369190613076565b60405180910390f35b61015960048036038101906101549190612bd7565b61046d565b6040516101669190613040565b60405180910390f35b61017761048b565b6040516101849190613178565b60405180910390f35b6101a760048036038101906101a29190612b88565b610495565b6040516101b49190613040565b60405180910390f35b6101c5610596565b6040516101d29190613193565b60405180910390f35b6101f560048036038101906101f09190612bd7565b61059f565b6040516102029190613040565b60405180910390f35b61022560048036038101906102209190612ca1565b61064b565b6040516102329190613178565b60405180910390f35b61025560048036038101906102509190612c13565b61071a565b6040516102629190613040565b60405180910390f35b61028560048036038101906102809190612b23565b6109a8565b6040516102929190613178565b60405180910390f35b6102b560048036038101906102b09190612b23565b6109f0565b6040516102c2919061305b565b60405180910390f35b6102d3610a39565b6040516102e09190612fde565b60405180910390f35b6102f1610a63565b6040516102fe9190613076565b60405180910390f35b610321600480360381019061031c9190612bd7565b610af5565b60405161032e9190613040565b60405180910390f35b610351600480360381019061034c9190612bd7565b610be9565b60405161035e9190613040565b60405180910390f35b610381600480360381019061037c9190612b4c565b610c07565b60405161038e9190613178565b60405180910390f35b80600960006101000a81548173ffffffffffffffffffffffffffffffffffffffff021916908373ffffffffffffffffffffffffffffffffffffffff16021790555050565b6060600480546103ea9061340f565b80601f01602080910402602001604051908101604052809291908181526020018280546104169061340f565b80156104635780601f1061043857610100808354040283529160200191610463565b820191906000526020600020905b81548152906001019060200180831161044657829003601f168201915b5050505050905090565b600061048161047a6120e5565b84846120ed565b6001905092915050565b6000600354905090565b60006104a28484846122b8565b6000600260008673ffffffffffffffffffffffffffffffffffffffff1673ffffffffffffffffffffffffffffffffffffffff16815260200190815260200160002060006104ed6120e5565b73ffffffffffffffffffffffffffffffffffffffff1673ffffffffffffffffffffffffffffffffffffffff1681526020019081526020016000205490508281101561056d576040517f08c379a0000000000000000000000000000000000000000000000000000000008152600401610564906130f8565b60405180910390fd5b61058a856105796120e5565b85846105859190613349565b6120ed565b60019150509392505050565b60006012905090565b60006106416105ac6120e5565b8484600260006105ba6120e5565b73ffffffffffffffffffffffffffffffffffffffff1673ffffffffffffffffffffffffffffffffffffffff16815260200190815260200160002060008873ffffffffffffffffffffffffffffffffffffffff1673ffffffffffffffffffffffffffffffffffffffff1681526020019081526020016000205461063c91906132f3565b6120ed565b6001905092915050565b600080600167ffffffffffffffff81111561068f577f4e487b7100000000000000000000000000000000000000000000000000000000600052604160045260246000fd5b6040519080825280602002602001820160405280156106bd5781602001602082028036833780820191505090505b50905082816000815181106106fb577f4e487b7100000000000000000000000000000000000000000000000000000000600052603260045260246000fd5b602002602001018181525050610712816002612651565b915050919050565b60008061073b84600001518560200151866040015187606001516001612754565b9050600061075d84600001518560200151866040015187606001516002612754565b90506000925081801561076d5750805b1561099e5761077d3388886128cb565b60008060003373ffffffffffffffffffffffffffffffffffffffff1673ffffffffffffffffffffffffffffffffffffffff16815260200190815260200160002054905086811015610803576040517f08c379a00000000000000000000000000000000000000000000000000000000081526004016107fa906130d8565b60405180910390fd5b61081787826108129190613349565b61064b565b60001b600160003373ffffffffffffffffffffffffffffffffffffffff1673ffffffffffffffffffffffffffffffffffffffff168152602001908152602001600020819055506108af876000808b73ffffffffffffffffffffffffffffffffffffffff1673ffffffffffffffffffffffffffffffffffffffff168152602001908152602001600020546108aa91906132f3565b61064b565b60001b600160008a73ffffffffffffffffffffffffffffffffffffffff1673ffffffffffffffffffffffffffffffffffffffff1681526020019081526020016000208190555086816109019190613349565b6000803373ffffffffffffffffffffffffffffffffffffffff1673ffffffffffffffffffffffffffffffffffffffff16815260200190815260200160002081905550866000808a73ffffffffffffffffffffffffffffffffffffffff1673ffffffffffffffffffffffffffffffffffffffff168152602001908152602001600020600082825461099191906132f3565b9250508190555060019350505b5050949350505050565b60008060008373ffffffffffffffffffffffffffffffffffffffff1673ffffffffffffffffffffffffffffffffffffffff168152602001908152602001600020549050919050565b6000600160008373ffffffffffffffffffffffffffffffffffffffff1673ffffffffffffffffffffffffffffffffffffffff168152602001908152602001600020549050919050565b6000600960009054906101000a900473ffffffffffffffffffffffffffffffffffffffff16905090565b606060058054610a729061340f565b80601f0160208091040260200160405190810160405280929190818152602001828054610a9e9061340f565b8015610aeb5780601f10610ac057610100808354040283529160200191610aeb565b820191906000526020600020905b815481529060010190602001808311610ace57829003601f168201915b5050505050905090565b60008060026000610b046120e5565b73ffffffffffffffffffffffffffffffffffffffff1673ffffffffffffffffffffffffffffffffffffffff16815260200190815260200160002060008573ffffffffffffffffffffffffffffffffffffffff1673ffffffffffffffffffffffffffffffffffffffff16815260200190815260200160002054905082811015610bc1576040517f08c379a0000000000000000000000000000000000000000000000000000000008152600401610bb890613158565b60405180910390fd5b610bde610bcc6120e5565b858584610bd99190613349565b6120ed565b600191505092915050565b6000610bfd610bf66120e5565b84846122b8565b6001905092915050565b6000600260008473ffffffffffffffffffffffffffffffffffffffff1673ffffffffffffffffffffffffffffffffffffffff16815260200190815260200160002060008373ffffffffffffffffffffffffffffffffffffffff1673ffffffffffffffffffffffffffffffffffffffff16815260200190815260200160002054905092915050565b60007f30644e72e131a029b85045b68181585d2833e84879b9709143e1f593f00000016000808460008701019150828283099050828284858485098409099550847f2e2ebbb178296b63d88ec198f0976ad98bc1d4eb0d921ddd2eb86cb7e70a98e58701019150828283099050828284858485098409099550847f21bfc154b5b071d22d06105663553801f858c1f231020b4c291a729d6281d3498701019150828283099050828284858485098409099550847f126cfa352b0e2701442b36e0c2fc88287cfd3bfecce842afc0e3e78d8edb4ad88701019150828283099050828284858485098409099550847f0309d7067ab65de1a99fe23f458d0bc3f18c59b6642ef48afc679ef17cb6928c8701019150828283099050828284858485098409099550847f194c4693409966960be88513cfe32987c125f71398a782e44973fb8af4798bd88701019150828283099050828284858485098409099550847f05a849684bc58cc0d6e9f319b4dae26db171733bf60f31d978e41d09a75a63198701019150828283099050828284858485098409099550847f18bd4dae5134538bd2f90d41bbb1e330b2a8286ba4a09aca3fbbdcf932534be58701019150828283099050828284858485098409099550847f0736c60cd39fd1649d4845b4f9a6ec9baca89fb2de0a3d7eeabe43504b5607fa8701019150828283099050828284858485098409099550847f25a6971a9d2c1de9f374378d8f61492b1bd3c46584c076a76c43c3cd1a7475128701019150828283099050828284858485098409099550847f0a3373d15fa6dce221f83226c02d41f8aea5cfc6da4c9f4981ada1bd4b50f56e8701019150828283099050828284858485098409099550847f2b70028e2bf4e008e22eddb78d4190d73c289dc6445b3f64e15f8bd0ec02c6728701019150828283099050828284858485098409099550847f0b24ef461a71eed93dd366342f9ca4eebb749c8a5a6057c801d538c7c0666ba48701019150828283099050828284858485098409099550847f05d1e0ac576d1ec814b621516339ae1a291c7df36b5fd6cf0b4e3c9cd25e30728701019150828283099050828284858485098409099550847f271cfbf88e9744b8596e7e2d6875c8005d0e62014010ac35e95a7ce2390bc50f8701019150828283099050828284858485098409099550847f196309f1d170d741ab1ce90c39772017fb7cdec78c37882b98a6b56956c13def8701019150828283099050828284858485098409099550847f127c1116c575c03c7f6d83417d8c1b3808f92ee16924a54094bf094721e9e4f58701019150828283099050828284858485098409099550847f1bff78047ee67d38a54fdc540f9a2ba07f63489acd36425f1ae210ac329826f58701019150828283099050828284858485098409099550847f06c7dc7bbae615fcf1896f2b8db7d92c05dc1ea1c8134e9db6fd588672c53e9a8701019150828283099050828284858485098409099550847f12df78cba175ef76dbfcc9c785926bb3949a87ec7533e2559a27a64b91cebba58701019150828283099050828284858485098409099550847f2bd4cdc962e3da62cb3c96f7c428a9b0d518bfa7ce26f8fce7a6af769afb65408701019150828283099050828284858485098409099550847f24edd3847febbe44c4cc390246e3379b47fd01a030d0cd0b4fcf7fbd1cabfe588701019150828283099050828284858485098409099550847f1ce065d2c2561bb573e4cf4259d3b0b0e9eacb447751c62b77d0bc5e4e3c7d158701019150828283099050828284858485098409099550847f18053e9f0d45f9eefbda135bfd39329e34837e633565c314fb9030b9db7381bb8701019150828283099050828284858485098409099550847f162ffa8742138bbe516168bf86ec78b1ad1e8b535ac455a7cfbb22c13f9c5a9e8701019150828283099050828284858485098409099550847f079eea42e16ac6442ca82623fc0e8d9ad3996a47a8013ea9cb73858ca42b71598701019150828283099050828284858485098409099550847f0a49af2bbe11b05bd02a69a47b1bad5b2170407ada21142f06e4e109de88a1b68701019150828283099050828284858485098409099550847f12c34eebbaa69cccc36929e8f4a6e40771e153ff77943da55c4fc860537b733a8701019150828283099050828284858485098409099550847e8de5ac6b4e359335b6fce58dc0e5e43fd2aefd86bac35abe579b8cace5dbc88701019150828283099050828284858485098409099550847f04a6e988b50d915734bf3296d83057ffe6a550f8987e4597bee7d333cd24a8658701019150828283099050828284858485098409099550847f24112633926cfc6028fa2ffd9f090b1e5428a0a87d7118356e48b5d4704492178701019150828283099050828284858485098409099550847f0d56329982f3df38a3f19fb814c3013f419ba0eb8403b27c0c0e75c6fe1cf4688701019150828283099050828284858485098409099550847f1f01ef80763c95f53c434164493d9673aeef290bf1aa1997d677b557b9692e8a8701019150828283099050828284858485098409099550847f105c5257f801527e60b0361c00075b5a79d2dc6821d8a1258d906ed453c7e7be8701019150828283099050828284858485098409099550847f03db505a0c32cb61ca099389c2180e1c83827fb41d9fed84d88766df44c630798701019150828283099050828284858485098409099550847f1262e738f38db6c79d24d9727294421cd95afa24f4700c1323ab83c3a06ace328701019150828283099050828284858485098409099550847f0ee68c3e38c194033994c0d4d7bde35bfafa35b22a95f915f82c5a3b0422bd9a8701019150828283099050828284858485098409099550847f2ee5427bd20c47f8d2f0aa9e6419f7926abcd5965084292ae54dd780077e69028701019150828283099050828284858485098409099550847f1e542d31d2a381792e0a9241c46229a22fd9382443e423a0e419d0feb58656af8701019150828283099050828284858485098409099550847f0ba39f01462ab6a7cf621952752fcde48677d7f32df47e940eacf4954c5ef6328701019150828283099050828284858485098409099550847f29c00b058c17800146bdc06b1e73ff5d0ff53df96f8463818c0572d11fcaf88b8701019150828283099050828284858485098409099550847f0b6200895b60a6c6794fcf1c2b1b15d03a713c905a8ba1f1315f7501fe1a50b88701019150828283099050828284858485098409099550847f2bc639b1b85d731f62d2c6f391d4498e392cb75edcbd5c4c0fa8b26d32d68a128701019150828283099050828284858485098409099550847f2a89f38e6440ce641127046b67d8e615f14503d72d76bf3c703a01d1463a84458701019150828283099050828284858485098409099550847f1750ede7eeeb4edd7838b67fac6d250a54055eeead10e69b3a6e1f076ca878688701019150828283099050828284858485098409099550847f0c2d65084bead2a743115be5329d5458d29802081f6f9dac4165c42651f9be2b8701019150828283099050828284858485098409099550847f28303e2d834e16e1fe33c9ab726a3e75dd0dad9bfea1a43267199e1f243993fb8701019150828283099050828284858485098409099550847f2b572811ca34ea5110d10772e4ced362ebefd7cd1e1884b769e9435914efc5e58701019150828283099050828284858485098409099550847f17521ca5799fe2ea82c67c0a8d0863b5eec0ef9b703e195dd402b7008b53f6b48701019150828283099050828284858485098409099550847f0407e54b96a5b63c609fa3797b223c73d260a365ad58b25891a5660272096bd58701019150828283099050828284858485098409099550847f1a3cd155b03c7d33cc8222c997424bc14069e2edbf4b8aa564c9e5832bdace918701019150828283099050828284858485098409099550847f296255b5e697e517c502ba49b18aaad89514a490a02e7a878b5d559841b93fbd8701019150828283099050828284858485098409099550847f174835801a1f1525b4c21853b965c5048af465e9f79de9d16748c67953da79a78701019150828283099050828284858485098409099550847f2d4afed7a708e5972e84d766292f2c841c5d8570961074d59ad3f51e9369a5978701019150828283099050828284858485098409099550847f1c0eb06744c9866e271cd29a7f17f72964faba3cd088b95e73dcce9d92c79ba68701019150828283099050828284858485098409099550847f26705e7e4f23a7d786ad1786b353a2f8b82269c7b58ab70d7b93f41685d34d458701019150828283099050828284858485098409099550847f04e674d88b90b1188353106ae25c0447acace9dc6d62cfe7fec2d7993dfd7a228701019150828283099050828284858485098409099550847f0df3335da13ff46f65095f975d157886241aeccff38fd9bba92644f8969d7e098701019150828283099050828284858485098409099550847f2dfff62b9282ec05b1fa44479a6e9debe9ac631813d2b10e44b9e0fe19e4d4ee8701019150828283099050828284858485098409099550847f08ece248fe1ce1cd705699b5cd07c990ec27721bab59b657bb138e487ee6694d8701019150828283099050828284858485098409099550847f2c1ab81db607ba76dbf71f48752c856bf183044981c3b6d1fd31b179a078f5718701019150828283099050828284858485098409099550847f01de6f8886868e351bf4caad293bd86ed29ef63810e15cb809542e01bfbbcb888701019150828283099050828284858485098409099550847f23dd8b576fa286331864d63c77fd82fa61da717533821b9382617ebd54abeb468701019150828283099050828284858485098409099550847f169f2c8e515b2cee8d183991c3712736001a7f92fb34c3e3f532dec373aacbfb8701019150828283099050828284858485098409099550847f0ecf89b898e2deca99ae5108d271f1fa92e5018c1ac899d554dc1dfa35ceb0a08701019150828283099050828284858485098409099550847f0dc0d6e76afba377dd693ed4c47a4f9fee7a88d1df5df62fd06f2f87b81de1c88701019150828283099050828284858485098409099550847f0d8d08571539c68a37dad2a6638291d323948e57a0189a7be2ec14d89308bb6d8701019150828283099050828284858485098409099550847f17d170e737533e922c934f79bad3c28f85ef14b21c7354000298cee876977a448701019150828283099050828284858485098409099550847f09ed630d4088d7acaa34064515c1cb368ed405c4ded26df38652d290b26f6aff8701019150828283099050828284858485098409099550847f2b5381943dd4c43bd059a4747b72fc116f099c46004dc811ddb440f7ee69701e8701019150828283099050828284858485098409099550847f01da34e987e965c368ec0252e97db8bfb78668db369cdf6c70f7e02b5bd52b3b8701019150828283099050828284858485098409099550847f1a18c896f124cd4821fbe08ac680b78362c15344619cef072874f43799b89f238701019150828283099050828284858485098409099550847f168dbaf0eae2cfe96f6b340bfd4922c1c41317bfff69613b81d9722e34059f208701019150828283099050828284858485098409099550847f1dfd587726ec442565eb47fc0234740634b6562d1b60192947140b8670aa40148701019150828283099050828284858485098409099550847f147a904bcd17a3f66ebd75b2c1279507001e602842a047929fd119d31edf39248701019150828283099050828284858485098409099550847e621164e8b17a476172ee2aabd9a1a67ecc05f926bec5bbaceb7524616e11668701019150828283099050828284858485098409099550847f280fcce91f920b6487ee3e6a838abbc1f7eb44e4853b22d067a56f5e908499b98701019150828283099050828284858485098409099550847f2d49d03ab6b741495e4d7cbe87ea6cf0f06aea86f528d13d57f6a05e4c868d0b8701019150828283099050828284858485098409099550847f2a59b6e410852d96661479179081af38f478b7603eb3e4f231f99633d826cde98701019150828283099050828284858485098409099550847f1a7783fa9ff7b36d38aeb75e65cfc88260b70d4600b51ab5745e5fe1dc35d9b18701019150828283099050828284858485098409099550847f286d1e7e039fa286d1bd8fe69e175ecad61693cc1f55044847191bae2ff344b28701019150828283099050828284858485098409099550847f0fa108dbe8e14e8c53093f9aaf1f989dabb3dc026ffecb049d3d6b4b2c9b80778701019150828283099050828284858485098409099550847f0e4b25635fa58150829c3e832c4361bfa7edfdf40b0514c00dd3a7338131f1938701019150828283099050828284858485098409099550847f23b0ea71b8bbd3cb62b741e525f5c8b35cbfed820aaf1234d03a4655cdf710398701019150828283099050828284858485098409099550847f2aced572dbfd2664569030fcf391019702f79cbfbe380714894fbfc785dad03f8701019150828283099050828284858485098409099550847f03c36b340d12daf2422febd15a4521f351459057c2affd6816c67fa38b3cc34d8701019150828283099050828284858485098409099550847f17d64c030f29369c09ffd529c7532b84228e69ef6dd9d9dab603ba86cb9254e78701019150828283099050828284858485098409099550847f095050333e4136e4c73b4101ab008bf625a73c51afd5e77f99c606ca7ace63d78701019150828283099050828284858485098409099550847f10ca0fd2a95bc198763d375f566182463e0c92ea122df6485f1c4e5a9769b32c8701019150828283099050828284858485098409099550847f29f63c935efe224e235d5b49b88578a97b25c739a342d4a0d908b98ef757db618701019150828283099050828284858485098409099550847f1e1289b8eff2d431b178bc957cc0c41a1d7237057b9256fd090eb3c6366b9ef5870101915082828309905082828485848509840909955082858708935050505092915050565b600033905090565b600073ffffffffffffffffffffffffffffffffffffffff168373ffffffffffffffffffffffffffffffffffffffff16141561215d576040517f08c379a000000000000000000000000000000000000000000000000000000000815260040161215490613138565b60405180910390fd5b600073ffffffffffffffffffffffffffffffffffffffff168273ffffffffffffffffffffffffffffffffffffffff1614156121cd576040517f08c379a00000000000000000000000000000000000000000000000000000000081526004016121c4906130b8565b60405180910390fd5b80600260008573ffffffffffffffffffffffffffffffffffffffff1673ffffffffffffffffffffffffffffffffffffffff16815260200190815260200160002060008473ffffffffffffffffffffffffffffffffffffffff1673ffffffffffffffffffffffffffffffffffffffff168152602001908152602001600020819055508173ffffffffffffffffffffffffffffffffffffffff168373ffffffffffffffffffffffffffffffffffffffff167f8c5be1e5ebec7d5bd14f71427d1e84f3dd0314c0f7b2291e5b200ac8c7c3b925836040516122ab9190613178565b60405180910390a3505050565b600073ffffffffffffffffffffffffffffffffffffffff168373ffffffffffffffffffffffffffffffffffffffff161415612328576040517f08c379a000000000000000000000000000000000000000000000000000000000815260040161231f90613118565b60405180910390fd5b600073ffffffffffffffffffffffffffffffffffffffff168273ffffffffffffffffffffffffffffffffffffffff161415612398576040517f08c379a000000000000000000000000000000000000000000000000000000000815260040161238f90613098565b60405180910390fd5b6123a38383836128cb565b60008060008573ffffffffffffffffffffffffffffffffffffffff1673ffffffffffffffffffffffffffffffffffffffff16815260200190815260200160002054905081811015612429576040517f08c379a0000000000000000000000000000000000000000000000000000000008152600401612420906130d8565b60405180910390fd5b81816124359190613349565b6000808673ffffffffffffffffffffffffffffffffffffffff1673ffffffffffffffffffffffffffffffffffffffff16815260200190815260200160002081905550816000808573ffffffffffffffffffffffffffffffffffffffff1673ffffffffffffffffffffffffffffffffffffffff16815260200190815260200160002060008282546124c591906132f3565b925050819055506125136000808673ffffffffffffffffffffffffffffffffffffffff1673ffffffffffffffffffffffffffffffffffffffff1681526020019081526020016000205461064b565b60001b600160008673ffffffffffffffffffffffffffffffffffffffff1673ffffffffffffffffffffffffffffffffffffffff168152602001908152602001600020819055506125a06000808573ffffffffffffffffffffffffffffffffffffffff1673ffffffffffffffffffffffffffffffffffffffff1681526020019081526020016000205461064b565b60001b600160008573ffffffffffffffffffffffffffffffffffffffff1673ffffffffffffffffffffffffffffffffffffffff168152602001908152602001600020819055508273ffffffffffffffffffffffffffffffffffffffff168473ffffffffffffffffffffffffffffffffffffffff167fddf252ad1be2c89b69c2b068fc378daa952ba7f163c4a11628f55a4df523b3ef846040516126439190613178565b60405180910390a350505050565b60008082905060007f30644e72e131a029b85045b68181585d2833e84879b9709143e1f593f0000001905060005b855181101561274857816126d38783815181106126c5577f4e487b7100000000000000000000000000000000000000000000000000000000600052603260045260246000fd5b602002602001015185610c8e565b87838151811061270c577f4e487b7100000000000000000000000000000000000000000000000000000000600052603260045260246000fd5b60200260200101518561271f91906132f3565b61272991906132f3565b61273391906134bb565b9250808061274090613472565b91505061267f565b50819250505092915050565b600080600960009054906101000a900473ffffffffffffffffffffffffffffffffffffffff169050600183141561281c578073ffffffffffffffffffffffffffffffffffffffff1663203437bc888888886040518563ffffffff1660e01b81526004016127c49493929190612ff9565b60206040518083038186803b1580156127dc57600080fd5b505afa1580156127f0573d6000803e3d6000fd5b505050506040513d601f19601f820116820180604052508101906128149190612c78565b9150506128c2565b60028314156128bc578073ffffffffffffffffffffffffffffffffffffffff1663d249f925888888886040518563ffffffff1660e01b81526004016128649493929190612ff9565b60206040518083038186803b15801561287c57600080fd5b505afa158015612890573d6000803e3d6000fd5b505050506040513d601f19601f820116820180604052508101906128b49190612c78565b9150506128c2565b60009150505b95945050505050565b505050565b60006128e36128de846131d3565b6131ae565b905080828560408602820111156128f957600080fd5b60005b85811015612929578161290f8882612a35565b8452602084019350604083019250506001810190506128fc565b5050509392505050565b6000612946612941846131f9565b6131ae565b9050808285602086028201111561295c57600080fd5b60005b8581101561298c57816129728882612b0e565b84526020840193506020830192505060018101905061295f565b5050509392505050565b60006129a96129a48461321f565b6131ae565b905080828560208602820111156129bf57600080fd5b60005b858110156129ef57816129d58882612b0e565b8452602084019350602083019250506001810190506129c2565b5050509392505050565b600081359050612a08816137e2565b92915050565b600082601f830112612a1f57600080fd5b6002612a2c8482856128d0565b91505092915050565b600082601f830112612a4657600080fd5b6002612a53848285612933565b91505092915050565b600082601f830112612a6d57600080fd5b6003612a7a848285612996565b91505092915050565b600081519050612a92816137f9565b92915050565b60006101608284031215612aab57600080fd5b612ab560806131ae565b90506000612ac584828501612a35565b6000830152506040612ad984828501612a0e565b60208301525060c0612aed84828501612a35565b604083015250610100612b0284828501612a5c565b60608301525092915050565b600081359050612b1d81613810565b92915050565b600060208284031215612b3557600080fd5b6000612b43848285016129f9565b91505092915050565b60008060408385031215612b5f57600080fd5b6000612b6d858286016129f9565b9250506020612b7e858286016129f9565b9150509250929050565b600080600060608486031215612b9d57600080fd5b6000612bab868287016129f9565b9350506020612bbc868287016129f9565b9250506040612bcd86828701612b0e565b9150509250925092565b60008060408385031215612bea57600080fd5b6000612bf8858286016129f9565b9250506020612c0985828601612b0e565b9150509250929050565b6000806000806103008587031215612c2a57600080fd5b6000612c38878288016129f9565b9450506020612c4987828801612b0e565b9350506040612c5a87828801612a98565b9250506101a0612c6c87828801612a98565b91505092959194509250565b600060208284031215612c8a57600080fd5b6000612c9884828501612a83565b91505092915050565b600060208284031215612cb357600080fd5b6000612cc184828501612b0e565b91505092915050565b6000612cd68383612d60565b60408301905092915050565b6000612cee8383612fb1565b60208301905092915050565b612d038161337d565b82525050565b612d1281613263565b612d1c81846132b6565b9250612d2782613245565b8060005b83811015612d58578151612d3f8782612cca565b9650612d4a8361328f565b925050600181019050612d2b565b505050505050565b612d698161326e565b612d7381846132c1565b9250612d7e8261324f565b8060005b83811015612daf578151612d968782612ce2565b9650612da18361329c565b925050600181019050612d82565b505050505050565b612dc08161326e565b612dca81846132cc565b9250612dd58261324f565b8060005b83811015612e06578151612ded8782612ce2565b9650612df88361329c565b925050600181019050612dd9565b505050505050565b612e1781613279565b612e2181846132d7565b9250612e2c82613259565b8060005b83811015612e5d578151612e448782612ce2565b9650612e4f836132a9565b925050600181019050612e30565b505050505050565b612e6e8161338f565b82525050565b612e7d8161339b565b82525050565b6000612e8e82613284565b612e9881856132e2565b9350612ea88185602086016133dc565b612eb1816135a8565b840191505092915050565b6000612ec96023836132e2565b9150612ed4826135b9565b604082019050919050565b6000612eec6022836132e2565b9150612ef782613608565b604082019050919050565b6000612f0f6026836132e2565b9150612f1a82613657565b604082019050919050565b6000612f326028836132e2565b9150612f3d826136a6565b604082019050919050565b6000612f556025836132e2565b9150612f60826136f5565b604082019050919050565b6000612f786024836132e2565b9150612f8382613744565b604082019050919050565b6000612f9b6025836132e2565b9150612fa682613793565b604082019050919050565b612fba816133c5565b82525050565b612fc9816133c5565b82525050565b612fd8816133cf565b82525050565b6000602082019050612ff36000830184612cfa565b92915050565b60006101608201905061300f6000830187612db7565b61301c6040830186612d09565b61302960c0830185612db7565b613037610100830184612e0e565b95945050505050565b60006020820190506130556000830184612e65565b92915050565b60006020820190506130706000830184612e74565b92915050565b600060208201905081810360008301526130908184612e83565b905092915050565b600060208201905081810360008301526130b181612ebc565b9050919050565b600060208201905081810360008301526130d181612edf565b9050919050565b600060208201905081810360008301526130f181612f02565b9050919050565b6000602082019050818103600083015261311181612f25565b9050919050565b6000602082019050818103600083015261313181612f48565b9050919050565b6000602082019050818103600083015261315181612f6b565b9050919050565b6000602082019050818103600083015261317181612f8e565b9050919050565b600060208201905061318d6000830184612fc0565b92915050565b60006020820190506131a86000830184612fcf565b92915050565b60006131b86131c9565b90506131c48282613441565b919050565b6000604051905090565b600067ffffffffffffffff8211156131ee576131ed613579565b5b602082029050919050565b600067ffffffffffffffff82111561321457613213613579565b5b602082029050919050565b600067ffffffffffffffff82111561323a57613239613579565b5b602082029050919050565b6000819050919050565b6000819050919050565b6000819050919050565b600060029050919050565b600060029050919050565b600060039050919050565b600081519050919050565b6000602082019050919050565b6000602082019050919050565b6000602082019050919050565b600081905092915050565b600081905092915050565b600081905092915050565b600081905092915050565b600082825260208201905092915050565b60006132fe826133c5565b9150613309836133c5565b9250827fffffffffffffffffffffffffffffffffffffffffffffffffffffffffffffffff0382111561333e5761333d6134ec565b5b828201905092915050565b6000613354826133c5565b915061335f836133c5565b925082821015613372576133716134ec565b5b828203905092915050565b6000613388826133a5565b9050919050565b60008115159050919050565b6000819050919050565b600073ffffffffffffffffffffffffffffffffffffffff82169050919050565b6000819050919050565b600060ff82169050919050565b60005b838110156133fa5780820151818401526020810190506133df565b83811115613409576000848401525b50505050565b6000600282049050600182168061342757607f821691505b6020821081141561343b5761343a61354a565b5b50919050565b61344a826135a8565b810181811067ffffffffffffffff8211171561346957613468613579565b5b80604052505050565b600061347d826133c5565b91507fffffffffffffffffffffffffffffffffffffffffffffffffffffffffffffffff8214156134b0576134af6134ec565b5b600182019050919050565b60006134c6826133c5565b91506134d1836133c5565b9250826134e1576134e061351b565b5b828206905092915050565b7f4e487b7100000000000000000000000000000000000000000000000000000000600052601160045260246000fd5b7f4e487b7100000000000000000000000000000000000000000000000000000000600052601260045260246000fd5b7f4e487b7100000000000000000000000000000000000000000000000000000000600052602260045260246000fd5b7f4e487b7100000000000000000000000000000000000000000000000000000000600052604160045260246000fd5b6000601f19601f8301169050919050565b7f45524332303a207472616e7366657220746f20746865207a65726f206164647260008201527f6573730000000000000000000000000000000000000000000000000000000000602082015250565b7f45524332303a20617070726f766520746f20746865207a65726f20616464726560008201527f7373000000000000000000000000000000000000000000000000000000000000602082015250565b7f45524332303a207472616e7366657220616d6f756e742065786365656473206260008201527f616c616e63650000000000000000000000000000000000000000000000000000602082015250565b7f45524332303a207472616e7366657220616d6f756e742065786365656473206160008201527f6c6c6f77616e6365000000000000000000000000000000000000000000000000602082015250565b7f45524332303a207472616e736665722066726f6d20746865207a65726f20616460008201527f6472657373000000000000000000000000000000000000000000000000000000602082015250565b7f45524332303a20617070726f76652066726f6d20746865207a65726f2061646460008201527f7265737300000000000000000000000000000000000000000000000000000000602082015250565b7f45524332303a2064656372656173656420616c6c6f77616e63652062656c6f7760008201527f207a65726f000000000000000000000000000000000000000000000000000000602082015250565b6137eb8161337d565b81146137f657600080fd5b50565b6138028161338f565b811461380d57600080fd5b50565b613819816133c5565b811461382457600080fd5b5056fea264697066735822122007fcecb442a2f8c17c02aa2b69e66c6082679e6298f9a08dd0933670b6fe585064736f6c63430008040033",
  "immutableReferences": {},
  "source": "// SPDX-License-Identifier: UNLICENSED\npragma solidity ^0.8.4;\npragma abicoder v2;\n\nimport \"./ERC20.sol\";\nimport \"./verifier.sol\";\n\ncontract createToken is ERC20 {\n    string private _name = \"DCEToken\";\n    string private _symbol = \"DCET\";\n    uint private _INITIAL_SUPPLY = 12000000;\n\n    /** @dev constructor calling ERC20 constructor*/\n    constructor() ERC20(_name, _symbol) {\n        _mint(msg.sender, _INITIAL_SUPPLY);\n    }\n\n    // calling VERIFIER.SOL\n    address addressVerifier;\n\n    /**@param _addressVerif, address of the verifier */\n    function setAddressVerif(address _addressVerif) public {\n        addressVerifier = _addressVerif;\n    }\n\n    /** @return adr , address of the verifier, not a really useful function*/\n    function getAddressVerif() public view returns (address adr) {\n        return addressVerifier;\n    }\n\n    /**@param a, b, c, input, data returned by the snarkjs function \"generatecall\"\n    * @param personRole, 1 or 2 <=> sender or verifier, inputs are differents\n    */\n    function callVerifier(uint[2] memory a, uint[2][2] memory b, uint[2] memory c, uint[3] memory input, uint personRole)\n    private view returns (bool) {\n        InterfaceVerifier v = InterfaceVerifier(addressVerifier);\n        if (personRole == 1) {\n            return v.verifyProofSender(a, b, c, input);\n        }\n        if (personRole == 2) {\n            return v.verifyProofReceiver(a, b, c, input);\n        }\n        return false;\n    }\n\n    /**\n    @dev using a struct for the parameters of the callVerifier function is more convenient */\n    struct VerifParameters {\n        uint[2] a;\n        uint[2][2] b;\n        uint[2] c;\n        uint[3] input;\n    }\n\n    /**\n    * @param _addr , address to return the balance's hash\n    * @return bytes32 balance's mimc hash\n    */\n    function getBalanceHash(address _addr) public view returns (bytes32){\n        return _balanceHashes[_addr];\n    }\n\n    /**\n    @dev confidential transaction, there should be an interaction between the two parties\n    @param _to, address of the receiver,\n    @param vSender, vReceiver: two VerifParameters objects, they are used for the zkp approval\n    @return val , transaction ok/not ok\n    */\n    function confidentialTransfer(address _to, uint256 value,\n        VerifParameters memory vSender, VerifParameters memory vReceiver)\n    public returns (bool val) {\n        bool senderProofIsCorrect = callVerifier(vSender.a, vSender.b, vSender.c, vSender.input, 1);\n        bool receiverProofIsCorrect = callVerifier(vReceiver.a, vReceiver.b, vReceiver.c, vReceiver.input, 2);\n\n        val = false;\n        if (senderProofIsCorrect && receiverProofIsCorrect) {\n            _beforeTokenTransfer(msg.sender, _to, value);\n            uint256 senderBalance = _balances[msg.sender];\n            require(senderBalance >= value, \"ERC20: transfer amount exceeds balance\");\n\n            _balanceHashes[msg.sender] = bytes32(mimc(senderBalance - value));\n            _balanceHashes[_to] = bytes32(mimc(_balances[_to] + value));\n\n            _balances[msg.sender] = senderBalance - value;\n            _balances[_to] += value;\n\n            val = true;\n        }\n        return val;\n    }\n\n}\n",
  "sourcePath": "/home/zhuang/Documents/zkex/contracts/createToken.sol",
  "compiler": {
    "name": "solc",
    "version": "0.8.4+commit.c7e474f2.Emscripten.clang"
  },
  "schemaVersion": "3.3.2",
  "updatedAt": "2021-06-09T07:49:42.854Z",
  "devdoc": {
    "kind": "dev",
    "methods": {
      "allowance(address,address)": {
        "details": "See {IERC20-allowance}."
      },
      "approve(address,uint256)": {
        "details": "See {IERC20-approve}. Requirements: - `spender` cannot be the zero address."
      },
      "balanceOf(address)": {
        "details": "See {IERC20-balanceOf}."
      },
      "confidentialTransfer(address,uint256,(uint256[2],uint256[2][2],uint256[2],uint256[3]),(uint256[2],uint256[2][2],uint256[2],uint256[3]))": {
        "details": "confidential transaction, there should be an interaction between the two parties",
        "params": {
          "_to": ", address of the receiver,",
          "vSender": ", vReceiver: two VerifParameters objects, they are used for the zkp approval"
        },
        "returns": {
          "val": ", transaction ok/not ok"
        }
      },
      "constructor": {
        "details": "constructor calling ERC20 constructor"
      },
      "decreaseAllowance(address,uint256)": {
        "details": "Atomically decreases the allowance granted to `spender` by the caller. This is an alternative to {approve} that can be used as a mitigation for problems described in {IERC20-approve}. Emits an {Approval} event indicating the updated allowance. Requirements: - `spender` cannot be the zero address. - `spender` must have allowance for the caller of at least `subtractedValue`."
      },
      "getAddressVerif()": {
        "returns": {
          "adr": ", address of the verifier, not a really useful function"
        }
      },
      "getBalanceHash(address)": {
        "params": {
          "_addr": ", address to return the balance's hash"
        },
        "returns": {
          "_0": "bytes32 balance's mimc hash"
        }
      },
      "increaseAllowance(address,uint256)": {
        "details": "Atomically increases the allowance granted to `spender` by the caller. This is an alternative to {approve} that can be used as a mitigation for problems described in {IERC20-approve}. Emits an {Approval} event indicating the updated allowance. Requirements: - `spender` cannot be the zero address."
      },
      "mimc(uint256)": {
        "params": {
          "value": "to hash"
        },
        "returns": {
          "_0": "uint256, mimc hash of value "
        }
      },
      "name()": {
        "details": "Returns the name of the token."
      },
      "setAddressVerif(address)": {
        "params": {
          "_addressVerif": ", address of the verifier "
        }
      },
      "symbol()": {
        "details": "Returns the symbol of the token, usually a shorter version of the name."
      },
      "totalSupply()": {
        "details": "See {IERC20-totalSupply}."
      },
      "transfer(address,uint256)": {
        "details": "See {IERC20-transfer}. Requirements: - `recipient` cannot be the zero address. - the caller must have a balance of at least `amount`."
      },
      "transferFrom(address,address,uint256)": {
        "details": "See {IERC20-transferFrom}. Emits an {Approval} event indicating the updated allowance. This is not required by the EIP. See the note at the beginning of {ERC20}. Requirements: - `sender` and `recipient` cannot be the zero address. - `sender` must have a balance of at least `amount`. - the caller must have allowance for ``sender``'s tokens of at least `amount`."
      }
    },
    "version": 1
  },
  "userdoc": {
    "kind": "user",
    "methods": {},
    "version": 1
  }
}