{
  "contractName": "Verifier",
  "abi": [
    {
      "inputs": [
        {
          "internalType": "uint256[2]",
          "name": "a",
          "type": "uint256[2]"
        },
        {
          "internalType": "uint256[2][2]",
          "name": "b",
          "type": "uint256[2][2]"
        },
        {
          "internalType": "uint256[2]",
          "name": "c",
          "type": "uint256[2]"
        },
        {
          "internalType": "uint256[3]",
          "name": "input",
          "type": "uint256[3]"
        }
      ],
      "name": "verifyProofReceiver",
      "outputs": [
        {
          "internalType": "bool",
          "name": "r",
          "type": "bool"
        }
      ],
      "stateMutability": "view",
      "type": "function"
    },
    {
      "inputs": [
        {
          "internalType": "uint256[2]",
          "name": "a",
          "type": "uint256[2]"
        },
        {
          "internalType": "uint256[2][2]",
          "name": "b",
          "type": "uint256[2][2]"
        },
        {
          "internalType": "uint256[2]",
          "name": "c",
          "type": "uint256[2]"
        },
        {
          "internalType": "uint256[3]",
          "name": "input",
          "type": "uint256[3]"
        }
      ],
      "name": "verifyProofSender",
      "outputs": [
        {
          "internalType": "bool",
          "name": "r",
          "type": "bool"
        }
      ],
      "stateMutability": "view",
      "type": "function"
    }
  ],
  "bytecode": "0x608060405234801561001057600080fd5b50612e89806100206000396000f3fe608060405234801561001057600080fd5b50600436106100365760003560e01c8063203437bc1461003b578063d249f9251461006b575b600080fd5b6100556004803603810190610050919061283a565b61009b565b6040516100629190612980565b60405180910390f35b6100856004803603810190610080919061283a565b610557565b6040516100929190612980565b60405180910390f35b60006100a5612545565b6040518060400160405280876000600281106100ea577f4e487b7100000000000000000000000000000000000000000000000000000000600052603260045260246000fd5b602002015181526020018760016002811061012e577f4e487b7100000000000000000000000000000000000000000000000000000000600052603260045260246000fd5b60200201518152508160000181905250604051806040016040528060405180604001604052808860006002811061018e577f4e487b7100000000000000000000000000000000000000000000000000000000600052603260045260246000fd5b60200201516000600281106101cc577f4e487b7100000000000000000000000000000000000000000000000000000000600052603260045260246000fd5b6020020151815260200188600060028110610210577f4e487b7100000000000000000000000000000000000000000000000000000000600052603260045260246000fd5b602002015160016002811061024e577f4e487b7100000000000000000000000000000000000000000000000000000000600052603260045260246000fd5b602002015181525081526020016040518060400160405280886001600281106102a0577f4e487b7100000000000000000000000000000000000000000000000000000000600052603260045260246000fd5b60200201516000600281106102de577f4e487b7100000000000000000000000000000000000000000000000000000000600052603260045260246000fd5b6020020151815260200188600160028110610322577f4e487b7100000000000000000000000000000000000000000000000000000000600052603260045260246000fd5b6020020151600160028110610360577f4e487b7100000000000000000000000000000000000000000000000000000000600052603260045260246000fd5b602002015181525081525081602001819052506040518060400160405280856000600281106103b8577f4e487b7100000000000000000000000000000000000000000000000000000000600052603260045260246000fd5b60200201518152602001856001600281106103fc577f4e487b7100000000000000000000000000000000000000000000000000000000600052603260045260246000fd5b602002015181525081604001819052506000600367ffffffffffffffff81111561044f577f4e487b7100000000000000000000000000000000000000000000000000000000600052604160045260246000fd5b60405190808252806020026020018201604052801561047d5781602001602082028036833780820191505090505b50905060005b6003811015610522578481600381106104c5577f4e487b7100000000000000000000000000000000000000000000000000000000600052603260045260246000fd5b6020020151828281518110610503577f4e487b7100000000000000000000000000000000000000000000000000000000600052603260045260246000fd5b602002602001018181525050808061051a90612c2e565b915050610483565b5060006105378284610532610a13565b610fc4565b14156105485760019250505061054f565b6000925050505b949350505050565b6000610561612545565b6040518060400160405280876000600281106105a6577f4e487b7100000000000000000000000000000000000000000000000000000000600052603260045260246000fd5b60200201518152602001876001600281106105ea577f4e487b7100000000000000000000000000000000000000000000000000000000600052603260045260246000fd5b60200201518152508160000181905250604051806040016040528060405180604001604052808860006002811061064a577f4e487b7100000000000000000000000000000000000000000000000000000000600052603260045260246000fd5b6020020151600060028110610688577f4e487b7100000000000000000000000000000000000000000000000000000000600052603260045260246000fd5b60200201518152602001886000600281106106cc577f4e487b7100000000000000000000000000000000000000000000000000000000600052603260045260246000fd5b602002015160016002811061070a577f4e487b7100000000000000000000000000000000000000000000000000000000600052603260045260246000fd5b6020020151815250815260200160405180604001604052808860016002811061075c577f4e487b7100000000000000000000000000000000000000000000000000000000600052603260045260246000fd5b602002015160006002811061079a577f4e487b7100000000000000000000000000000000000000000000000000000000600052603260045260246000fd5b60200201518152602001886001600281106107de577f4e487b7100000000000000000000000000000000000000000000000000000000600052603260045260246000fd5b602002015160016002811061081c577f4e487b7100000000000000000000000000000000000000000000000000000000600052603260045260246000fd5b60200201518152508152508160200181905250604051806040016040528085600060028110610874577f4e487b7100000000000000000000000000000000000000000000000000000000600052603260045260246000fd5b60200201518152602001856001600281106108b8577f4e487b7100000000000000000000000000000000000000000000000000000000600052603260045260246000fd5b602002015181525081604001819052506000600367ffffffffffffffff81111561090b577f4e487b7100000000000000000000000000000000000000000000000000000000600052604160045260246000fd5b6040519080825280602002602001820160405280156109395781602001602082028036833780820191505090505b50905060005b60038110156109de57848160038110610981577f4e487b7100000000000000000000000000000000000000000000000000000000600052603260045260246000fd5b60200201518282815181106109bf577f4e487b7100000000000000000000000000000000000000000000000000000000600052603260045260246000fd5b60200260200101818152505080806109d690612c2e565b91505061093f565b5060006109f382846109ee611249565b610fc4565b1415610a0457600192505050610a0b565b6000925050505b949350505050565b610a1b612578565b60405180604001604052807e58c0af11ef111227923dd3bac9b896cee244ac1681934f8650d230d54896f381526020017f101b650fbd68a029ef83a8252ff0ad99e42a84280c6ce6205b8ef3d2eafd62698152508160000181905250604051806040016040528060405180604001604052807f2794e2cfd4da2fb051875652101f82566942ff90d20cc3b4aecea83c2b54444281526020017f07247b893a491a2d0281f1dab9b3e43f03199e55723be436736326307a0d2c10815250815260200160405180604001604052807f29341559ce5d93735affa3e110c1c5c1f920e33d12ca4697fb925a2cfc6ffaa281526020017f0703ca431654ea772b053ea6024bc7d4644bc25c01769c3f824e13d09bbb87708152508152508160200181905250604051806040016040528060405180604001604052807f198e9393920d483a7260bfb731fb5d25f1aa493335a9e71297e485b7aef312c281526020017f1800deef121f1e76426a00665e5c4479674322d4f75edadd46debd5cd992f6ed815250815260200160405180604001604052807f090689d0585ff075ec9e99ad690c3395bc4b313370b38ef355acdadcd122975b81526020017f12c85ea5db8c6deb4aab71808dcb408fe3d1e7690c43d37b4ce6cc0166fa7daa8152508152508160400181905250604051806040016040528060405180604001604052807f0ad4adbc60041b0f90fa1d5373fd3c8d925b3139d727aedb001e262992d08a2981526020017f199173a697b54662bfc1eaf1c8b89dd51d754b6eaea6d263a24ae214517c26a2815250815260200160405180604001604052807f0215e0a65f1047fd9fce5bfd02de1f66b25eda1271bfad054df641ae11d2d6fe81526020017f06042db4854a80f699a47a36318a4a366e0296a7ec14a7144eb8d7bbaf080e548152508152508160600181905250600467ffffffffffffffff811115610d07577f4e487b7100000000000000000000000000000000000000000000000000000000600052604160045260246000fd5b604051908082528060200260200182016040528015610d4057816020015b610d2d6125bf565b815260200190600190039081610d255790505b50816080018190525060405180604001604052807f226a4178990984edd5ad0f9d5b1f0c65975af63223af697304c04b3518f0799881526020017f023a0e785dd2a55957b0d29ce052dcbd1e930787c84d8ad065185fa2748856218152508160800151600081518110610ddc577f4e487b7100000000000000000000000000000000000000000000000000000000600052603260045260246000fd5b602002602001018190525060405180604001604052807f1dcdb60919205c49581b515c1978fbe17e893b58fa452bdc96ac7621acb5c93881526020017f0d2748d82cdc5118cc3d41e9c7a52ce9eb56396cbc1f492ef935f93a2d98488a8152508160800151600181518110610e7a577f4e487b7100000000000000000000000000000000000000000000000000000000600052603260045260246000fd5b602002602001018190525060405180604001604052807f299313625ab578843a6bdabf630e1374786796bc3121a192c80e922eb51fb00d81526020017f19189f7aa08f9214691f964ceaef3029092db7aebe65de8d2393abb078a1a9d08152508160800151600281518110610f18577f4e487b7100000000000000000000000000000000000000000000000000000000600052603260045260246000fd5b602002602001018190525060405180604001604052807f2b7865e0fea650ccb70567747441714a6c081d62fb2c15120850ed8b6184fa1581526020017f14d25df1b9b8c1bcb579fad573ad1416c335408f8d4f159a8e198a061c03da9e8152508160800151600381518110610fb6577f4e487b7100000000000000000000000000000000000000000000000000000000600052603260045260246000fd5b602002602001018190525090565b6000807f30644e72e131a029b85045b68181585d2833e84879b9709143e1f593f000000190506000839050806080015151600187516110039190612b03565b14611043576040517f08c379a000000000000000000000000000000000000000000000000000000000815260040161103a9061299b565b60405180910390fd5b60006040518060400160405280600081526020016000815250905060005b87518110156111a457838882815181106110a4577f4e487b7100000000000000000000000000000000000000000000000000000000600052603260045260246000fd5b6020026020010151106110ec576040517f08c379a00000000000000000000000000000000000000000000000000000000081526004016110e3906129db565b60405180910390fd5b61118f8261118a85608001516001856111059190612b03565b8151811061113c577f4e487b7100000000000000000000000000000000000000000000000000000000600052603260045260246000fd5b60200260200101518b858151811061117d577f4e487b7100000000000000000000000000000000000000000000000000000000600052603260045260246000fd5b60200260200101516117fa565b611949565b9150808061119c90612c2e565b915050611061565b506111f48183608001516000815181106111e7577f4e487b7100000000000000000000000000000000000000000000000000000000600052603260045260246000fd5b6020026020010151611949565b905061122a6112068760000151611ae4565b8760200151846000015185602001518587604001518c604001518960600151611b89565b61123a5760019350505050611242565b600093505050505b9392505050565b611251612578565b60405180604001604052807e58c0af11ef111227923dd3bac9b896cee244ac1681934f8650d230d54896f381526020017f101b650fbd68a029ef83a8252ff0ad99e42a84280c6ce6205b8ef3d2eafd62698152508160000181905250604051806040016040528060405180604001604052807f2794e2cfd4da2fb051875652101f82566942ff90d20cc3b4aecea83c2b54444281526020017f07247b893a491a2d0281f1dab9b3e43f03199e55723be436736326307a0d2c10815250815260200160405180604001604052807f29341559ce5d93735affa3e110c1c5c1f920e33d12ca4697fb925a2cfc6ffaa281526020017f0703ca431654ea772b053ea6024bc7d4644bc25c01769c3f824e13d09bbb87708152508152508160200181905250604051806040016040528060405180604001604052807f198e9393920d483a7260bfb731fb5d25f1aa493335a9e71297e485b7aef312c281526020017f1800deef121f1e76426a00665e5c4479674322d4f75edadd46debd5cd992f6ed815250815260200160405180604001604052807f090689d0585ff075ec9e99ad690c3395bc4b313370b38ef355acdadcd122975b81526020017f12c85ea5db8c6deb4aab71808dcb408fe3d1e7690c43d37b4ce6cc0166fa7daa8152508152508160400181905250604051806040016040528060405180604001604052807f0cbf65d4505cbd673241b40dfff3de3f52da0ed33c665b3309b0622cae8cb27681526020017f2b4b09233b9bb4d5e1a7fbf5b790aa28dda154f7e934949cd88befa51cef864f815250815260200160405180604001604052807f1fa845f7f41f240d2fa9ac2cb28690b7e600ed111731efc36c2ae9f7f1384aba81526020017f071ea331981b26df2630ea2839b3cb686de0a04baffb51874e82118e743164338152508152508160600181905250600467ffffffffffffffff81111561153d577f4e487b7100000000000000000000000000000000000000000000000000000000600052604160045260246000fd5b60405190808252806020026020018201604052801561157657816020015b6115636125bf565b81526020019060019003908161155b5790505b50816080018190525060405180604001604052807f01f07770f66e8f6280a92e5b6d7ff4469faf2bd882a96109e6837d1e4778691681526020017f236b87ec4fefd193e32c21a7997d530bf5121061fa81897f49604a9385d4ba368152508160800151600081518110611612577f4e487b7100000000000000000000000000000000000000000000000000000000600052603260045260246000fd5b602002602001018190525060405180604001604052807f0ac9c76cd1b2c8d4f257e234ae7a64058c21e195ceafa07226f514038bb73ee581526020017f24a7c07e26915d63632f715e60ea0e3ed3fe62c788e366fdb205f04a7205975981525081608001516001815181106116b0577f4e487b7100000000000000000000000000000000000000000000000000000000600052603260045260246000fd5b602002602001018190525060405180604001604052807f26ce958406978ca79e14be523ddba78379783cbab72db824626a72d7e70a523c81526020017f2eb2f5ec0013bdb9d325f1d92396cd56dee1d47d56618248c895d734563b180c815250816080015160028151811061174e577f4e487b7100000000000000000000000000000000000000000000000000000000600052603260045260246000fd5b602002602001018190525060405180604001604052807f1e52102122e8da0f17ddc3e7d267f9bdde67b864a7303df5dd927e0d07e6414681526020017f25179ded6f755a2001f7c364f1e2d12a5f75165015af4a675764fc38d1853b4181525081608001516003815181106117ec577f4e487b7100000000000000000000000000000000000000000000000000000000600052603260045260246000fd5b602002602001018190525090565b6118026125bf565b61180a6125d9565b836000015181600060038110611849577f4e487b7100000000000000000000000000000000000000000000000000000000600052603260045260246000fd5b602002018181525050836020015181600160038110611891577f4e487b7100000000000000000000000000000000000000000000000000000000600052603260045260246000fd5b60200201818152505082816002600381106118d5577f4e487b7100000000000000000000000000000000000000000000000000000000600052603260045260246000fd5b602002018181525050600060608360808460076107d05a03fa905080600081146118fe57611900565bfe5b5080611941576040517f08c379a0000000000000000000000000000000000000000000000000000000008152600401611938906129bb565b60405180910390fd5b505092915050565b6119516125bf565b6119596125fb565b836000015181600060048110611998577f4e487b7100000000000000000000000000000000000000000000000000000000600052603260045260246000fd5b6020020181815250508360200151816001600481106119e0577f4e487b7100000000000000000000000000000000000000000000000000000000600052603260045260246000fd5b602002018181525050826000015181600260048110611a28577f4e487b7100000000000000000000000000000000000000000000000000000000600052603260045260246000fd5b602002018181525050826020015181600360048110611a70577f4e487b7100000000000000000000000000000000000000000000000000000000600052603260045260246000fd5b602002018181525050600060608360c08460066107d05a03fa90508060008114611a9957611a9b565bfe5b5080611adc576040517f08c379a0000000000000000000000000000000000000000000000000000000008152600401611ad390612a1b565b60405180910390fd5b505092915050565b611aec6125bf565b60007f30644e72e131a029b85045b68181585d97816a916871ca8d3c208c16d87cfd47905060008360000151148015611b29575060008360200151145b15611b4d576040518060400160405280600081526020016000815250915050611b84565b604051806040016040528084600001518152602001828560200151611b729190612c77565b83611b7d9190612bb3565b8152509150505b919050565b600080600467ffffffffffffffff811115611bcd577f4e487b7100000000000000000000000000000000000000000000000000000000600052604160045260246000fd5b604051908082528060200260200182016040528015611c0657816020015b611bf36125bf565b815260200190600190039081611beb5790505b5090506000600467ffffffffffffffff811115611c4c577f4e487b7100000000000000000000000000000000000000000000000000000000600052604160045260246000fd5b604051908082528060200260200182016040528015611c8557816020015b611c7261261d565b815260200190600190039081611c6a5790505b5090508a82600081518110611cc3577f4e487b7100000000000000000000000000000000000000000000000000000000600052603260045260246000fd5b60200260200101819052508882600181518110611d09577f4e487b7100000000000000000000000000000000000000000000000000000000600052603260045260246000fd5b60200260200101819052508682600281518110611d4f577f4e487b7100000000000000000000000000000000000000000000000000000000600052603260045260246000fd5b60200260200101819052508482600381518110611d95577f4e487b7100000000000000000000000000000000000000000000000000000000600052603260045260246000fd5b60200260200101819052508981600081518110611ddb577f4e487b7100000000000000000000000000000000000000000000000000000000600052603260045260246000fd5b60200260200101819052508781600181518110611e21577f4e487b7100000000000000000000000000000000000000000000000000000000600052603260045260246000fd5b60200260200101819052508581600281518110611e67577f4e487b7100000000000000000000000000000000000000000000000000000000600052603260045260246000fd5b60200260200101819052508381600381518110611ead577f4e487b7100000000000000000000000000000000000000000000000000000000600052603260045260246000fd5b6020026020010181905250611ec28282611ed2565b9250505098975050505050505050565b60008151835114611f18576040517f08c379a0000000000000000000000000000000000000000000000000000000008152600401611f0f906129fb565b60405180910390fd5b6000835190506000600682611f2d9190612b59565b905060008167ffffffffffffffff811115611f71577f4e487b7100000000000000000000000000000000000000000000000000000000600052604160045260246000fd5b604051908082528060200260200182016040528015611f9f5781602001602082028036833780820191505090505b50905060005b8381101561248457868181518110611fe6577f4e487b7100000000000000000000000000000000000000000000000000000000600052603260045260246000fd5b6020026020010151600001518260006006846120029190612b59565b61200c9190612b03565b81518110612043577f4e487b7100000000000000000000000000000000000000000000000000000000600052603260045260246000fd5b602002602001018181525050868181518110612088577f4e487b7100000000000000000000000000000000000000000000000000000000600052603260045260246000fd5b6020026020010151602001518260016006846120a49190612b59565b6120ae9190612b03565b815181106120e5577f4e487b7100000000000000000000000000000000000000000000000000000000600052603260045260246000fd5b60200260200101818152505085818151811061212a577f4e487b7100000000000000000000000000000000000000000000000000000000600052603260045260246000fd5b60200260200101516000015160006002811061216f577f4e487b7100000000000000000000000000000000000000000000000000000000600052603260045260246000fd5b60200201518260026006846121849190612b59565b61218e9190612b03565b815181106121c5577f4e487b7100000000000000000000000000000000000000000000000000000000600052603260045260246000fd5b60200260200101818152505085818151811061220a577f4e487b7100000000000000000000000000000000000000000000000000000000600052603260045260246000fd5b60200260200101516000015160016002811061224f577f4e487b7100000000000000000000000000000000000000000000000000000000600052603260045260246000fd5b60200201518260036006846122649190612b59565b61226e9190612b03565b815181106122a5577f4e487b7100000000000000000000000000000000000000000000000000000000600052603260045260246000fd5b6020026020010181815250508581815181106122ea577f4e487b7100000000000000000000000000000000000000000000000000000000600052603260045260246000fd5b60200260200101516020015160006002811061232f577f4e487b7100000000000000000000000000000000000000000000000000000000600052603260045260246000fd5b60200201518260046006846123449190612b59565b61234e9190612b03565b81518110612385577f4e487b7100000000000000000000000000000000000000000000000000000000600052603260045260246000fd5b6020026020010181815250508581815181106123ca577f4e487b7100000000000000000000000000000000000000000000000000000000600052603260045260246000fd5b60200260200101516020015160016002811061240f577f4e487b7100000000000000000000000000000000000000000000000000000000600052603260045260246000fd5b60200201518260056006846124249190612b59565b61242e9190612b03565b81518110612465577f4e487b7100000000000000000000000000000000000000000000000000000000600052603260045260246000fd5b602002602001018181525050808061247c90612c2e565b915050611fa5565b5061248d612643565b6000602082602086026020860160086107d05a03fa905080600081146124b2576124b4565bfe5b50806124f5576040517f08c379a00000000000000000000000000000000000000000000000000000000081526004016124ec90612a3b565b60405180910390fd5b600082600060018110612531577f4e487b7100000000000000000000000000000000000000000000000000000000600052603260045260246000fd5b602002015114159550505050505092915050565b60405180606001604052806125586125bf565b815260200161256561261d565b81526020016125726125bf565b81525090565b6040518060a0016040528061258b6125bf565b815260200161259861261d565b81526020016125a561261d565b81526020016125b261261d565b8152602001606081525090565b604051806040016040528060008152602001600081525090565b6040518060600160405280600390602082028036833780820191505090505090565b6040518060800160405280600490602082028036833780820191505090505090565b6040518060400160405280612630612665565b815260200161263d612665565b81525090565b6040518060200160405280600190602082028036833780820191505090505090565b6040518060400160405280600290602082028036833780820191505090505090565b600061269a61269584612a80565b612a5b565b905080828560408602820111156126b057600080fd5b60005b858110156126e057816126c688826127d7565b8452602084019350604083019250506001810190506126b3565b5050509392505050565b60006126fd6126f884612aa6565b612a5b565b9050808285602086028201111561271357600080fd5b60005b8581101561274357816127298882612825565b845260208401935060208301925050600181019050612716565b5050509392505050565b600061276061275b84612acc565b612a5b565b9050808285602086028201111561277657600080fd5b60005b858110156127a6578161278c8882612825565b845260208401935060208301925050600181019050612779565b5050509392505050565b600082601f8301126127c157600080fd5b60026127ce848285612687565b91505092915050565b600082601f8301126127e857600080fd5b60026127f58482856126ea565b91505092915050565b600082601f83011261280f57600080fd5b600361281c84828561274d565b91505092915050565b60008135905061283481612e3c565b92915050565b600080600080610160858703121561285157600080fd5b600061285f878288016127d7565b9450506040612870878288016127b0565b93505060c0612881878288016127d7565b925050610100612893878288016127fe565b91505092959194509250565b6128a881612be7565b82525050565b60006128bb601283612af2565b91506128c682612d46565b602082019050919050565b60006128de601283612af2565b91506128e982612d6f565b602082019050919050565b6000612901601f83612af2565b915061290c82612d98565b602082019050919050565b6000612924601683612af2565b915061292f82612dc1565b602082019050919050565b6000612947601283612af2565b915061295282612dea565b602082019050919050565b600061296a601583612af2565b915061297582612e13565b602082019050919050565b6000602082019050612995600083018461289f565b92915050565b600060208201905081810360008301526129b4816128ae565b9050919050565b600060208201905081810360008301526129d4816128d1565b9050919050565b600060208201905081810360008301526129f4816128f4565b9050919050565b60006020820190508181036000830152612a1481612917565b9050919050565b60006020820190508181036000830152612a348161293a565b9050919050565b60006020820190508181036000830152612a548161295d565b9050919050565b6000612a65612a76565b9050612a718282612bfd565b919050565b6000604051905090565b600067ffffffffffffffff821115612a9b57612a9a612d06565b5b602082029050919050565b600067ffffffffffffffff821115612ac157612ac0612d06565b5b602082029050919050565b600067ffffffffffffffff821115612ae757612ae6612d06565b5b602082029050919050565b600082825260208201905092915050565b6000612b0e82612bf3565b9150612b1983612bf3565b9250827fffffffffffffffffffffffffffffffffffffffffffffffffffffffffffffffff03821115612b4e57612b4d612ca8565b5b828201905092915050565b6000612b6482612bf3565b9150612b6f83612bf3565b9250817fffffffffffffffffffffffffffffffffffffffffffffffffffffffffffffffff0483118215151615612ba857612ba7612ca8565b5b828202905092915050565b6000612bbe82612bf3565b9150612bc983612bf3565b925082821015612bdc57612bdb612ca8565b5b828203905092915050565b60008115159050919050565b6000819050919050565b612c0682612d35565b810181811067ffffffffffffffff82111715612c2557612c24612d06565b5b80604052505050565b6000612c3982612bf3565b91507fffffffffffffffffffffffffffffffffffffffffffffffffffffffffffffffff821415612c6c57612c6b612ca8565b5b600182019050919050565b6000612c8282612bf3565b9150612c8d83612bf3565b925082612c9d57612c9c612cd7565b5b828206905092915050565b7f4e487b7100000000000000000000000000000000000000000000000000000000600052601160045260246000fd5b7f4e487b7100000000000000000000000000000000000000000000000000000000600052601260045260246000fd5b7f4e487b7100000000000000000000000000000000000000000000000000000000600052604160045260246000fd5b6000601f19601f8301169050919050565b7f76657269666965722d6261642d696e7075740000000000000000000000000000600082015250565b7f70616972696e672d6d756c2d6661696c65640000000000000000000000000000600082015250565b7f76657269666965722d6774652d736e61726b2d7363616c61722d6669656c6400600082015250565b7f70616972696e672d6c656e677468732d6661696c656400000000000000000000600082015250565b7f70616972696e672d6164642d6661696c65640000000000000000000000000000600082015250565b7f70616972696e672d6f70636f64652d6661696c65640000000000000000000000600082015250565b612e4581612bf3565b8114612e5057600080fd5b5056fea26469706673582212203db4432641976e576dd124c67ee72f98ab1be742f385b48f7d79ab8d400f1a2064736f6c63430008040033",
  "immutableReferences": {},
  "source": "//\n// Copyright 2017 Christian Reitwiessner\n// Permission is hereby granted, free of charge, to any person obtaining a copy of this software and associated documentation files (the \"Software\"), to deal in the Software without restriction, including without limitation the rights to use, copy, modify, merge, publish, distribute, sublicense, and/or sell copies of the Software, and to permit persons to whom the Software is furnished to do so, subject to the following conditions:\n// The above copyright notice and this permission notice shall be included in all copies or substantial portions of the Software.\n// THE SOFTWARE IS PROVIDED \"AS IS\", WITHOUT WARRANTY OF ANY KIND, EXPRESS OR IMPLIED, INCLUDING BUT NOT LIMITED TO THE WARRANTIES OF MERCHANTABILITY, FITNESS FOR A PARTICULAR PURPOSE AND NONINFRINGEMENT. IN NO EVENT SHALL THE AUTHORS OR COPYRIGHT HOLDERS BE LIABLE FOR ANY CLAIM, DAMAGES OR OTHER LIABILITY, WHETHER IN AN ACTION OF CONTRACT, TORT OR OTHERWISE, ARISING FROM, OUT OF OR IN CONNECTION WITH THE SOFTWARE OR THE USE OR OTHER DEALINGS IN THE SOFTWARE.\n//\n// 2019 OKIMS\n//      ported to solidity 0.6\n//      fixed linter warnings\n//      added requiere error messages\n//\n//\n// SPDX-License-Identifier: GPL-3.0\n\n// codes are got from circuit exports.\n\npragma solidity ^0.8.4;\nlibrary Pairing {\n    struct G1Point {\n        uint X;\n        uint Y;\n    }\n    // Encoding of field elements is: X[0] * z + X[1]\n    struct G2Point {\n        uint[2] X;\n        uint[2] Y;\n    }\n    /// @return the generator of G1\n    function P1() internal pure returns (G1Point memory) {\n        return G1Point(1, 2);\n    }\n    /// @return the generator of G2\n    function P2() internal pure returns (G2Point memory) {\n        // Original code point\n        return G2Point(\n            [11559732032986387107991004021392285783925812861821192530917403151452391805634,\n            10857046999023057135944570762232829481370756359578518086990519993285655852781],\n            [4082367875863433681332203403145435568316851327593401208105741076214120093531,\n            8495653923123431417604973247489272438418190587263600148770280649306958101930]\n        );\n\n        /*\n                // Changed by Jordi point\n                return G2Point(\n                    [10857046999023057135944570762232829481370756359578518086990519993285655852781,\n                     11559732032986387107991004021392285783925812861821192530917403151452391805634],\n                    [8495653923123431417604973247489272438418190587263600148770280649306958101930,\n                     4082367875863433681332203403145435568316851327593401208105741076214120093531]\n                );\n        */\n    }\n    /// @return r the negation of p, i.e. p.addition(p.negate()) should be zero.\n    function negate(G1Point memory p) internal pure returns (G1Point memory r) {\n        // The prime q in the base field F_q for G1\n        uint q = 21888242871839275222246405745257275088696311157297823662689037894645226208583;\n        if (p.X == 0 && p.Y == 0)\n            return G1Point(0, 0);\n        return G1Point(p.X, q - (p.Y % q));\n    }\n    /// @return r the sum of two points of G1\n    function addition(G1Point memory p1, G1Point memory p2) internal view returns (G1Point memory r) {\n        uint[4] memory input;\n        input[0] = p1.X;\n        input[1] = p1.Y;\n        input[2] = p2.X;\n        input[3] = p2.Y;\n        bool success;\n        // solium-disable-next-line security/no-inline-assembly\n        assembly {\n            success := staticcall(sub(gas(), 2000), 6, input, 0xc0, r, 0x60)\n        // Use \"invalid\" to make gas estimation work\n            switch success case 0 { invalid() }\n        }\n        require(success,\"pairing-add-failed\");\n    }\n    /// @return r the product of a point on G1 and a scalar, i.e.\n    /// p == p.scalar_mul(1) and p.addition(p) == p.scalar_mul(2) for all points p.\n    function scalar_mul(G1Point memory p, uint s) internal view returns (G1Point memory r) {\n        uint[3] memory input;\n        input[0] = p.X;\n        input[1] = p.Y;\n        input[2] = s;\n        bool success;\n        // solium-disable-next-line security/no-inline-assembly\n        assembly {\n            success := staticcall(sub(gas(), 2000), 7, input, 0x80, r, 0x60)\n        // Use \"invalid\" to make gas estimation work\n            switch success case 0 { invalid() }\n        }\n        require (success,\"pairing-mul-failed\");\n    }\n    /// @return the result of computing the pairing check\n    /// e(p1[0], p2[0]) *  .... * e(p1[n], p2[n]) == 1\n    /// For example pairing([P1(), P1().negate()], [P2(), P2()]) should\n    /// return true.\n    function pairing(G1Point[] memory p1, G2Point[] memory p2) internal view returns (bool) {\n        require(p1.length == p2.length,\"pairing-lengths-failed\");\n        uint elements = p1.length;\n        uint inputSize = elements * 6;\n        uint[] memory input = new uint[](inputSize);\n        for (uint i = 0; i < elements; i++)\n        {\n            input[i * 6 + 0] = p1[i].X;\n            input[i * 6 + 1] = p1[i].Y;\n            input[i * 6 + 2] = p2[i].X[0];\n            input[i * 6 + 3] = p2[i].X[1];\n            input[i * 6 + 4] = p2[i].Y[0];\n            input[i * 6 + 5] = p2[i].Y[1];\n        }\n        uint[1] memory out;\n        bool success;\n        // solium-disable-next-line security/no-inline-assembly\n        assembly {\n            success := staticcall(sub(gas(), 2000), 8, add(input, 0x20), mul(inputSize, 0x20), out, 0x20)\n        // Use \"invalid\" to make gas estimation work\n            switch success case 0 { invalid() }\n        }\n        require(success,\"pairing-opcode-failed\");\n        return out[0] != 0;\n    }\n    /// Convenience method for a pairing check for two pairs.\n    function pairingProd2(G1Point memory a1, G2Point memory a2, G1Point memory b1, G2Point memory b2) internal view returns (bool) {\n        G1Point[] memory p1 = new G1Point[](2);\n        G2Point[] memory p2 = new G2Point[](2);\n        p1[0] = a1;\n        p1[1] = b1;\n        p2[0] = a2;\n        p2[1] = b2;\n        return pairing(p1, p2);\n    }\n    /// Convenience method for a pairing check for three pairs.\n    function pairingProd3(\n        G1Point memory a1, G2Point memory a2,\n        G1Point memory b1, G2Point memory b2,\n        G1Point memory c1, G2Point memory c2\n    ) internal view returns (bool) {\n        G1Point[] memory p1 = new G1Point[](3);\n        G2Point[] memory p2 = new G2Point[](3);\n        p1[0] = a1;\n        p1[1] = b1;\n        p1[2] = c1;\n        p2[0] = a2;\n        p2[1] = b2;\n        p2[2] = c2;\n        return pairing(p1, p2);\n    }\n    /// Convenience method for a pairing check for four pairs.\n    function pairingProd4(\n        G1Point memory a1, G2Point memory a2,\n        G1Point memory b1, G2Point memory b2,\n        G1Point memory c1, G2Point memory c2,\n        G1Point memory d1, G2Point memory d2\n    ) internal view returns (bool) {\n        G1Point[] memory p1 = new G1Point[](4);\n        G2Point[] memory p2 = new G2Point[](4);\n        p1[0] = a1;\n        p1[1] = b1;\n        p1[2] = c1;\n        p1[3] = d1;\n        p2[0] = a2;\n        p2[1] = b2;\n        p2[2] = c2;\n        p2[3] = d2;\n        return pairing(p1, p2);\n    }\n}\n\n// integrate sender and receiver verify\ninterface InterfaceVerifier {\n    function verifyProofSender(uint[2] memory a,uint[2][2] memory b,uint[2] memory c,uint[3] memory input) external view returns (bool r);\n    function verifyProofReceiver(uint[2] memory a,uint[2][2] memory b,uint[2] memory c,uint[3] memory input) external view returns (bool r);\n}\n\ncontract Verifier {\n    using Pairing for *;\n    struct VerifyingKey {\n        Pairing.G1Point alfa1;\n        Pairing.G2Point beta2;\n        Pairing.G2Point gamma2;\n        Pairing.G2Point delta2;\n        Pairing.G1Point[] IC;\n    }\n    struct Proof {\n        Pairing.G1Point A;\n        Pairing.G2Point B;\n        Pairing.G1Point C;\n    }\n    function verifyingKeyReceiver() internal pure returns (VerifyingKey memory vk) {\n        vk.alfa1 = Pairing.G1Point(156812396878403648182763966160378821179751521073295284575534073702664148723,7285407948808568062242848824334571023758780488611423080067356684955592516201);\n        vk.beta2 = Pairing.G2Point([17903259858133887259901559886722556785287866155611400074369198379744103777346,3230649048866420631329417931685042686559484468363549267168035462407644851216], [18636850197123760895362083075367050439472561870546574959450750884452846533282,3172886442707481048524272902735287785719384654029065349732259203551852201840]);\n        vk.gamma2 = Pairing.G2Point([11559732032986387107991004021392285783925812861821192530917403151452391805634,10857046999023057135944570762232829481370756359578518086990519993285655852781], [4082367875863433681332203403145435568316851327593401208105741076214120093531,8495653923123431417604973247489272438418190587263600148770280649306958101930]);\n        vk.delta2 = Pairing.G2Point([5765924772724721647675563055750313498292381118752536323853877702035866694262,19582029084531567091562946570495391916174713847423112824953878474163280119375], [14319011518277791702040202060770217100590647607592521627799352791050369911482,3220321673736767754537891586023883417547483520981837743697366270886032794675]);\n        vk.IC = new Pairing.G1Point[](4);\n        vk.IC[0] = Pairing.G1Point(877180497411678961678132692481802122166767691146517988895593315293457836310,16020940443068167607465469472532119816803925713027434320307383176253947558454);\n        vk.IC[1] = Pairing.G1Point(4879641127134187144268187441146703074812454171991189234956860464701304684261,16579654545129110706419153812202949141386921855811727495061078565762961348441);\n        vk.IC[2] = Pairing.G1Point(17552890661121319358497798317913715311590977102076819720661403341856719917628,21122587102771304435896452432936464088476957911792195366995797908859419039756);\n        vk.IC[3] = Pairing.G1Point(13714378238106015419508215420392986349054917884523455057349115186715629601094,16777302855492505651460651138266277203059782902506014460239765024216107531073);\n    }\n\n    function verifyingKeySender() internal pure returns (VerifyingKey memory vk) {\n        vk.alfa1 = Pairing.G1Point(156812396878403648182763966160378821179751521073295284575534073702664148723,7285407948808568062242848824334571023758780488611423080067356684955592516201);\n        vk.beta2 = Pairing.G2Point([17903259858133887259901559886722556785287866155611400074369198379744103777346,3230649048866420631329417931685042686559484468363549267168035462407644851216], [18636850197123760895362083075367050439472561870546574959450750884452846533282,3172886442707481048524272902735287785719384654029065349732259203551852201840]);\n        vk.gamma2 = Pairing.G2Point([11559732032986387107991004021392285783925812861821192530917403151452391805634,10857046999023057135944570762232829481370756359578518086990519993285655852781], [4082367875863433681332203403145435568316851327593401208105741076214120093531,8495653923123431417604973247489272438418190587263600148770280649306958101930]);\n        vk.delta2 = Pairing.G2Point([4898899144265318543237766375938327316545047357542433751330295648411527973417,11564812231132281327656311019527948961357949609779791481140244422907175642786], [943279962071072092331021822514157866888591759299142883760083608832228644606,2721259925171901392276418841858935866737209162873960126892459512398254444116]);\n        vk.IC = new Pairing.G1Point[](4);\n        vk.IC[0] = Pairing.G1Point(15566374505520404007629306105902806685139305976696305242970273037937917589912,1007202696446832013856987928414692960596017946729807128922447636028298122785);\n        vk.IC[1] = Pairing.G1Point(13480532620315049564217415984921939453807168745912392755377695734619690092856,5949476820918642964546995555711034957144484492065198327416551747778359347338);\n        vk.IC[2] = Pairing.G1Point(18804687095244465815193854233279582641215563530258406392676629975796342042637,11351326227828002221230857681161576989317105763710042311779254770184541546960);\n        vk.IC[3] = Pairing.G1Point(19662177279080680471291094269731104734333695603142089005883060518096048814613,9417943234584965274322711312819154393269149593830933217752361936466611526302);\n    }\n    function verify(uint[] memory input, Proof memory proof, VerifyingKey memory _vk) internal view returns (uint) {\n        uint256 snark_scalar_field = 21888242871839275222246405745257275088548364400416034343698204186575808495617;\n        VerifyingKey memory vk = _vk;\n        require(input.length + 1 == vk.IC.length,\"verifier-bad-input\");\n        // Compute the linear combination vk_x\n        Pairing.G1Point memory vk_x = Pairing.G1Point(0, 0);\n        for (uint i = 0; i < input.length; i++) {\n            require(input[i] < snark_scalar_field,\"verifier-gte-snark-scalar-field\");\n            vk_x = Pairing.addition(vk_x, Pairing.scalar_mul(vk.IC[i + 1], input[i]));\n        }\n        vk_x = Pairing.addition(vk_x, vk.IC[0]);\n        if (!Pairing.pairingProd4(\n            Pairing.negate(proof.A), proof.B,\n            vk.alfa1, vk.beta2,\n            vk_x, vk.gamma2,\n            proof.C, vk.delta2\n        )) return 1;\n        return 0;\n    }\n\n    /// @return r  bool true if proof is valid\n    function verifyProofReceiver(\n        uint[2] memory a,\n        uint[2][2] memory b,\n        uint[2] memory c,\n        uint[3] memory input\n    ) public view returns (bool r) {\n        Proof memory proof;\n        proof.A = Pairing.G1Point(a[0], a[1]);\n        proof.B = Pairing.G2Point([b[0][0], b[0][1]], [b[1][0], b[1][1]]);\n        proof.C = Pairing.G1Point(c[0], c[1]);\n        uint[] memory inputValues = new uint[](input.length);\n        for(uint i = 0; i < input.length; i++){\n            inputValues[i] = input[i];\n        }\n        if (verify(inputValues, proof, verifyingKeyReceiver()) == 0) {\n            return true;\n        } else {\n            return false;\n        }\n    }\n\n    /// @return r  bool true if proof is valid\n    function verifyProofSender(\n        uint[2] memory a,\n        uint[2][2] memory b,\n        uint[2] memory c,\n        uint[3] memory input\n    ) public view returns (bool r) {\n        Proof memory proof;\n        proof.A = Pairing.G1Point(a[0], a[1]);\n        proof.B = Pairing.G2Point([b[0][0], b[0][1]], [b[1][0], b[1][1]]);\n        proof.C = Pairing.G1Point(c[0], c[1]);\n        uint[] memory inputValues = new uint[](input.length);\n        for(uint i = 0; i < input.length; i++){\n            inputValues[i] = input[i];\n        }\n        if (verify(inputValues, proof, verifyingKeySender()) == 0) {\n            return true;\n        } else {\n            return false;\n        }\n    }\n}\n",
  "sourcePath": "/home/zhuang/Documents/zkex/contracts/verifier.sol",
  "compiler": {
    "name": "solc",
    "version": "0.8.4+commit.c7e474f2.Emscripten.clang"
  },
  "schemaVersion": "3.3.2",
  "updatedAt": "2021-06-09T07:45:36.710Z",
  "devdoc": {
    "kind": "dev",
    "methods": {
      "verifyProofReceiver(uint256[2],uint256[2][2],uint256[2],uint256[3])": {
        "returns": {
          "r": " bool true if proof is valid"
        }
      },
      "verifyProofSender(uint256[2],uint256[2][2],uint256[2],uint256[3])": {
        "returns": {
          "r": " bool true if proof is valid"
        }
      }
    },
    "version": 1
  },
  "userdoc": {
    "kind": "user",
    "methods": {},
    "version": 1
  }
}